{"abi":[{"inputs":[{"internalType":"uint256","name":"minimum","type":"uint256"},{"internalType":"address","name":"creator","type":"address"}],"stateMutability":"nonpayable","type":"constructor"},{"inputs":[{"internalType":"uint256","name":"index","type":"uint256"}],"name":"approveRequest","outputs":[],"stateMutability":"nonpayable","type":"function"},{"inputs":[{"internalType":"address","name":"","type":"address"}],"name":"approvers","outputs":[{"internalType":"bool","name":"","type":"bool"}],"stateMutability":"view","type":"function"},{"inputs":[],"name":"approversCount","outputs":[{"internalType":"uint256","name":"","type":"uint256"}],"stateMutability":"view","type":"function"},{"inputs":[],"name":"contribute","outputs":[],"stateMutability":"payable","type":"function"},{"inputs":[{"internalType":"string","name":"description","type":"string"},{"internalType":"uint256","name":"value","type":"uint256"},{"internalType":"address payable","name":"recipient","type":"address"}],"name":"createRequest","outputs":[],"stateMutability":"nonpayable","type":"function"},{"inputs":[{"internalType":"uint256","name":"index","type":"uint256"}],"name":"finalizeRequest","outputs":[],"stateMutability":"nonpayable","type":"function"},{"inputs":[],"name":"getRequestsCount","outputs":[{"internalType":"uint256","name":"","type":"uint256"}],"stateMutability":"view","type":"function"},{"inputs":[],"name":"getSummary","outputs":[{"internalType":"uint256","name":"","type":"uint256"},{"internalType":"uint256","name":"","type":"uint256"},{"internalType":"uint256","name":"","type":"uint256"},{"internalType":"uint256","name":"","type":"uint256"},{"internalType":"address","name":"","type":"address"}],"stateMutability":"view","type":"function"},{"inputs":[],"name":"manager","outputs":[{"internalType":"address","name":"","type":"address"}],"stateMutability":"view","type":"function"},{"inputs":[],"name":"minimumContribution","outputs":[{"internalType":"uint256","name":"","type":"uint256"}],"stateMutability":"view","type":"function"},{"inputs":[],"name":"numRequests","outputs":[{"internalType":"uint256","name":"","type":"uint256"}],"stateMutability":"view","type":"function"},{"inputs":[{"internalType":"uint256","name":"","type":"uint256"}],"name":"requests","outputs":[{"internalType":"string","name":"description","type":"string"},{"internalType":"uint256","name":"value","type":"uint256"},{"internalType":"address payable","name":"recipient","type":"address"},{"internalType":"bool","name":"complete","type":"bool"},{"internalType":"uint256","name":"approvalCount","type":"uint256"}],"stateMutability":"view","type":"function"}],"devdoc":{"kind":"dev","methods":{},"version":1},"evm":{"assembly":"    /* \"Campaign.sol\":416:2951  contract Campaign {... */\n  mstore(0x40, 0x80)\n    /* \"Campaign.sol\":963:1079  constructor(uint minimum, address creator) {... */\n  callvalue\n  dup1\n  iszero\n  tag_1\n  jumpi\n  0x00\n  dup1\n  revert\ntag_1:\n  pop\n  mload(0x40)\n  sub(codesize, bytecodeSize)\n  dup1\n  bytecodeSize\n  dup4\n  codecopy\n  dup2\n  dup2\n  add\n  0x40\n  mstore\n  dup2\n  add\n  swap1\n  tag_2\n  swap2\n  swap1\n  tag_3\n  jump\t// in\ntag_2:\n    /* \"Campaign.sol\":1026:1033  creator */\n  dup1\n    /* \"Campaign.sol\":1016:1023  manager */\n  0x00\n  dup1\n    /* \"Campaign.sol\":1016:1033  manager = creator */\n  0x0100\n  exp\n  dup2\n  sload\n  dup2\n  0xffffffffffffffffffffffffffffffffffffffff\n  mul\n  not\n  and\n  swap1\n  dup4\n  0xffffffffffffffffffffffffffffffffffffffff\n  and\n  mul\n  or\n  swap1\n  sstore\n  pop\n    /* \"Campaign.sol\":1065:1072  minimum */\n  dup2\n    /* \"Campaign.sol\":1043:1062  minimumContribution */\n  0x01\n    /* \"Campaign.sol\":1043:1072  minimumContribution = minimum */\n  dup2\n  swap1\n  sstore\n  pop\n    /* \"Campaign.sol\":963:1079  constructor(uint minimum, address creator) {... */\n  pop\n  pop\n    /* \"Campaign.sol\":416:2951  contract Campaign {... */\n  jump(tag_6)\n    /* \"#utility.yul\":88:205   */\ntag_8:\n    /* \"#utility.yul\":197:198   */\n  0x00\n    /* \"#utility.yul\":194:195   */\n  dup1\n    /* \"#utility.yul\":187:199   */\n  revert\n    /* \"#utility.yul\":334:411   */\ntag_10:\n    /* \"#utility.yul\":371:378   */\n  0x00\n    /* \"#utility.yul\":400:405   */\n  dup2\n    /* \"#utility.yul\":389:405   */\n  swap1\n  pop\n    /* \"#utility.yul\":334:411   */\n  swap2\n  swap1\n  pop\n  jump\t// out\n    /* \"#utility.yul\":417:539   */\ntag_11:\n    /* \"#utility.yul\":490:514   */\n  tag_23\n    /* \"#utility.yul\":508:513   */\n  dup2\n    /* \"#utility.yul\":490:514   */\n  tag_10\n  jump\t// in\ntag_23:\n    /* \"#utility.yul\":483:488   */\n  dup2\n    /* \"#utility.yul\":480:515   */\n  eq\n    /* \"#utility.yul\":470:533   */\n  tag_24\n  jumpi\n    /* \"#utility.yul\":529:530   */\n  0x00\n    /* \"#utility.yul\":526:527   */\n  dup1\n    /* \"#utility.yul\":519:531   */\n  revert\n    /* \"#utility.yul\":470:533   */\ntag_24:\n    /* \"#utility.yul\":417:539   */\n  pop\n  jump\t// out\n    /* \"#utility.yul\":545:688   */\ntag_12:\n    /* \"#utility.yul\":602:607   */\n  0x00\n    /* \"#utility.yul\":633:639   */\n  dup2\n    /* \"#utility.yul\":627:640   */\n  mload\n    /* \"#utility.yul\":618:640   */\n  swap1\n  pop\n    /* \"#utility.yul\":649:682   */\n  tag_26\n    /* \"#utility.yul\":676:681   */\n  dup2\n    /* \"#utility.yul\":649:682   */\n  tag_11\n  jump\t// in\ntag_26:\n    /* \"#utility.yul\":545:688   */\n  swap3\n  swap2\n  pop\n  pop\n  jump\t// out\n    /* \"#utility.yul\":694:820   */\ntag_13:\n    /* \"#utility.yul\":731:738   */\n  0x00\n    /* \"#utility.yul\":771:813   */\n  0xffffffffffffffffffffffffffffffffffffffff\n    /* \"#utility.yul\":764:769   */\n  dup3\n    /* \"#utility.yul\":760:814   */\n  and\n    /* \"#utility.yul\":749:814   */\n  swap1\n  pop\n    /* \"#utility.yul\":694:820   */\n  swap2\n  swap1\n  pop\n  jump\t// out\n    /* \"#utility.yul\":826:922   */\ntag_14:\n    /* \"#utility.yul\":863:870   */\n  0x00\n    /* \"#utility.yul\":892:916   */\n  tag_29\n    /* \"#utility.yul\":910:915   */\n  dup3\n    /* \"#utility.yul\":892:916   */\n  tag_13\n  jump\t// in\ntag_29:\n    /* \"#utility.yul\":881:916   */\n  swap1\n  pop\n    /* \"#utility.yul\":826:922   */\n  swap2\n  swap1\n  pop\n  jump\t// out\n    /* \"#utility.yul\":928:1050   */\ntag_15:\n    /* \"#utility.yul\":1001:1025   */\n  tag_31\n    /* \"#utility.yul\":1019:1024   */\n  dup2\n    /* \"#utility.yul\":1001:1025   */\n  tag_14\n  jump\t// in\ntag_31:\n    /* \"#utility.yul\":994:999   */\n  dup2\n    /* \"#utility.yul\":991:1026   */\n  eq\n    /* \"#utility.yul\":981:1044   */\n  tag_32\n  jumpi\n    /* \"#utility.yul\":1040:1041   */\n  0x00\n    /* \"#utility.yul\":1037:1038   */\n  dup1\n    /* \"#utility.yul\":1030:1042   */\n  revert\n    /* \"#utility.yul\":981:1044   */\ntag_32:\n    /* \"#utility.yul\":928:1050   */\n  pop\n  jump\t// out\n    /* \"#utility.yul\":1056:1199   */\ntag_16:\n    /* \"#utility.yul\":1113:1118   */\n  0x00\n    /* \"#utility.yul\":1144:1150   */\n  dup2\n    /* \"#utility.yul\":1138:1151   */\n  mload\n    /* \"#utility.yul\":1129:1151   */\n  swap1\n  pop\n    /* \"#utility.yul\":1160:1193   */\n  tag_34\n    /* \"#utility.yul\":1187:1192   */\n  dup2\n    /* \"#utility.yul\":1160:1193   */\n  tag_15\n  jump\t// in\ntag_34:\n    /* \"#utility.yul\":1056:1199   */\n  swap3\n  swap2\n  pop\n  pop\n  jump\t// out\n    /* \"#utility.yul\":1205:1712   */\ntag_3:\n    /* \"#utility.yul\":1284:1290   */\n  0x00\n    /* \"#utility.yul\":1292:1298   */\n  dup1\n    /* \"#utility.yul\":1341:1343   */\n  0x40\n    /* \"#utility.yul\":1329:1338   */\n  dup4\n    /* \"#utility.yul\":1320:1327   */\n  dup6\n    /* \"#utility.yul\":1316:1339   */\n  sub\n    /* \"#utility.yul\":1312:1344   */\n  slt\n    /* \"#utility.yul\":1309:1428   */\n  iszero\n  tag_36\n  jumpi\n    /* \"#utility.yul\":1347:1426   */\n  tag_37\n  tag_8\n  jump\t// in\ntag_37:\n    /* \"#utility.yul\":1309:1428   */\ntag_36:\n    /* \"#utility.yul\":1467:1468   */\n  0x00\n    /* \"#utility.yul\":1492:1556   */\n  tag_38\n    /* \"#utility.yul\":1548:1555   */\n  dup6\n    /* \"#utility.yul\":1539:1545   */\n  dup3\n    /* \"#utility.yul\":1528:1537   */\n  dup7\n    /* \"#utility.yul\":1524:1546   */\n  add\n    /* \"#utility.yul\":1492:1556   */\n  tag_12\n  jump\t// in\ntag_38:\n    /* \"#utility.yul\":1482:1556   */\n  swap3\n  pop\n    /* \"#utility.yul\":1438:1566   */\n  pop\n    /* \"#utility.yul\":1605:1607   */\n  0x20\n    /* \"#utility.yul\":1631:1695   */\n  tag_39\n    /* \"#utility.yul\":1687:1694   */\n  dup6\n    /* \"#utility.yul\":1678:1684   */\n  dup3\n    /* \"#utility.yul\":1667:1676   */\n  dup7\n    /* \"#utility.yul\":1663:1685   */\n  add\n    /* \"#utility.yul\":1631:1695   */\n  tag_16\n  jump\t// in\ntag_39:\n    /* \"#utility.yul\":1621:1695   */\n  swap2\n  pop\n    /* \"#utility.yul\":1576:1705   */\n  pop\n    /* \"#utility.yul\":1205:1712   */\n  swap3\n  pop\n  swap3\n  swap1\n  pop\n  jump\t// out\n    /* \"Campaign.sol\":416:2951  contract Campaign {... */\ntag_6:\n  dataSize(sub_0)\n  dup1\n  dataOffset(sub_0)\n  0x00\n  codecopy\n  0x00\n  return\nstop\n\nsub_0: assembly {\n        /* \"Campaign.sol\":416:2951  contract Campaign {... */\n      mstore(0x40, 0x80)\n      jumpi(tag_1, lt(calldatasize, 0x04))\n      shr(0xe0, calldataload(0x00))\n      dup1\n      0x82fde093\n      gt\n      tag_14\n      jumpi\n      dup1\n      0x82fde093\n      eq\n      tag_8\n      jumpi\n      dup1\n      0x8a9cfd55\n      eq\n      tag_9\n      jumpi\n      dup1\n      0x937e09b1\n      eq\n      tag_10\n      jumpi\n      dup1\n      0x9fb42b1f\n      eq\n      tag_11\n      jumpi\n      dup1\n      0xd7bb99ba\n      eq\n      tag_12\n      jumpi\n      dup1\n      0xd7d1bbdb\n      eq\n      tag_13\n      jumpi\n      jump(tag_1)\n    tag_14:\n      dup1\n      0x03441006\n      eq\n      tag_2\n      jumpi\n      dup1\n      0x0a144391\n      eq\n      tag_3\n      jumpi\n      dup1\n      0x3410452a\n      eq\n      tag_4\n      jumpi\n      dup1\n      0x4051ddac\n      eq\n      tag_5\n      jumpi\n      dup1\n      0x481c6a75\n      eq\n      tag_6\n      jumpi\n      dup1\n      0x81d12c58\n      eq\n      tag_7\n      jumpi\n    tag_1:\n      0x00\n      dup1\n      revert\n        /* \"Campaign.sol\":2299:2604  function finalizeRequest(uint index) public restrictedToManager {... */\n    tag_2:\n      callvalue\n      dup1\n      iszero\n      tag_15\n      jumpi\n      0x00\n      dup1\n      revert\n    tag_15:\n      pop\n      tag_16\n      0x04\n      dup1\n      calldatasize\n      sub\n      dup2\n      add\n      swap1\n      tag_17\n      swap2\n      swap1\n      tag_18\n      jump\t// in\n    tag_17:\n      tag_19\n      jump\t// in\n    tag_16:\n      stop\n        /* \"Campaign.sol\":712:753  mapping(address => bool) public approvers */\n    tag_3:\n      callvalue\n      dup1\n      iszero\n      tag_20\n      jumpi\n      0x00\n      dup1\n      revert\n    tag_20:\n      pop\n      tag_21\n      0x04\n      dup1\n      calldatasize\n      sub\n      dup2\n      add\n      swap1\n      tag_22\n      swap2\n      swap1\n      tag_23\n      jump\t// in\n    tag_22:\n      tag_24\n      jump\t// in\n    tag_21:\n      mload(0x40)\n      tag_25\n      swap2\n      swap1\n      tag_26\n      jump\t// in\n    tag_25:\n      mload(0x40)\n      dup1\n      swap2\n      sub\n      swap1\n      return\n        /* \"Campaign.sol\":2858:2948  function getRequestsCount() public view returns (uint) {... */\n    tag_4:\n      callvalue\n      dup1\n      iszero\n      tag_27\n      jumpi\n      0x00\n      dup1\n      revert\n    tag_27:\n      pop\n      tag_28\n      tag_29\n      jump\t// in\n    tag_28:\n      mload(0x40)\n      tag_30\n      swap2\n      swap1\n      tag_31\n      jump\t// in\n    tag_30:\n      mload(0x40)\n      dup1\n      swap2\n      sub\n      swap1\n      return\n        /* \"Campaign.sol\":2610:2852  function getSummary() public view returns (uint, uint, uint, uint, address) {... */\n    tag_5:\n      callvalue\n      dup1\n      iszero\n      tag_32\n      jumpi\n      0x00\n      dup1\n      revert\n    tag_32:\n      pop\n      tag_33\n      tag_34\n      jump\t// in\n    tag_33:\n      mload(0x40)\n      tag_35\n      swap6\n      swap5\n      swap4\n      swap3\n      swap2\n      swap1\n      tag_36\n      jump\t// in\n    tag_35:\n      mload(0x40)\n      dup1\n      swap2\n      sub\n      swap1\n      return\n        /* \"Campaign.sol\":647:669  address public manager */\n    tag_6:\n      callvalue\n      dup1\n      iszero\n      tag_37\n      jumpi\n      0x00\n      dup1\n      revert\n    tag_37:\n      pop\n      tag_38\n      tag_39\n      jump\t// in\n    tag_38:\n      mload(0x40)\n      tag_40\n      swap2\n      swap1\n      tag_41\n      jump\t// in\n    tag_40:\n      mload(0x40)\n      dup1\n      swap2\n      sub\n      swap1\n      return\n        /* \"Campaign.sol\":820:861  mapping (uint => Request) public requests */\n    tag_7:\n      callvalue\n      dup1\n      iszero\n      tag_42\n      jumpi\n      0x00\n      dup1\n      revert\n    tag_42:\n      pop\n      tag_43\n      0x04\n      dup1\n      calldatasize\n      sub\n      dup2\n      add\n      swap1\n      tag_44\n      swap2\n      swap1\n      tag_18\n      jump\t// in\n    tag_44:\n      tag_45\n      jump\t// in\n    tag_43:\n      mload(0x40)\n      tag_46\n      swap6\n      swap5\n      swap4\n      swap3\n      swap2\n      swap1\n      tag_47\n      jump\t// in\n    tag_46:\n      mload(0x40)\n      dup1\n      swap2\n      sub\n      swap1\n      return\n        /* \"Campaign.sol\":759:785  uint public approversCount */\n    tag_8:\n      callvalue\n      dup1\n      iszero\n      tag_48\n      jumpi\n      0x00\n      dup1\n      revert\n    tag_48:\n      pop\n      tag_49\n      tag_50\n      jump\t// in\n    tag_49:\n      mload(0x40)\n      tag_51\n      swap2\n      swap1\n      tag_31\n      jump\t// in\n    tag_51:\n      mload(0x40)\n      dup1\n      swap2\n      sub\n      swap1\n      return\n        /* \"Campaign.sol\":1250:1778  function createRequest(string memory description, uint value, address payable recipient) public restrictedToManager {... */\n    tag_9:\n      callvalue\n      dup1\n      iszero\n      tag_52\n      jumpi\n      0x00\n      dup1\n      revert\n    tag_52:\n      pop\n      tag_53\n      0x04\n      dup1\n      calldatasize\n      sub\n      dup2\n      add\n      swap1\n      tag_54\n      swap2\n      swap1\n      tag_55\n      jump\t// in\n    tag_54:\n      tag_56\n      jump\t// in\n    tag_53:\n      stop\n        /* \"Campaign.sol\":675:706  uint public minimumContribution */\n    tag_10:\n      callvalue\n      dup1\n      iszero\n      tag_57\n      jumpi\n      0x00\n      dup1\n      revert\n    tag_57:\n      pop\n      tag_58\n      tag_59\n      jump\t// in\n    tag_58:\n      mload(0x40)\n      tag_60\n      swap2\n      swap1\n      tag_31\n      jump\t// in\n    tag_60:\n      mload(0x40)\n      dup1\n      swap2\n      sub\n      swap1\n      return\n        /* \"Campaign.sol\":791:814  uint public numRequests */\n    tag_11:\n      callvalue\n      dup1\n      iszero\n      tag_61\n      jumpi\n      0x00\n      dup1\n      revert\n    tag_61:\n      pop\n      tag_62\n      tag_63\n      jump\t// in\n    tag_62:\n      mload(0x40)\n      tag_64\n      swap2\n      swap1\n      tag_31\n      jump\t// in\n    tag_64:\n      mload(0x40)\n      dup1\n      swap2\n      sub\n      swap1\n      return\n        /* \"Campaign.sol\":1085:1244  function contribute() public payable {... */\n    tag_12:\n      tag_65\n      tag_66\n      jump\t// in\n    tag_65:\n      stop\n        /* \"Campaign.sol\":1784:2293  function approveRequest(uint index) public {... */\n    tag_13:\n      callvalue\n      dup1\n      iszero\n      tag_67\n      jumpi\n      0x00\n      dup1\n      revert\n    tag_67:\n      pop\n      tag_68\n      0x04\n      dup1\n      calldatasize\n      sub\n      dup2\n      add\n      swap1\n      tag_69\n      swap2\n      swap1\n      tag_18\n      jump\t// in\n    tag_69:\n      tag_70\n      jump\t// in\n    tag_68:\n      stop\n        /* \"Campaign.sol\":2299:2604  function finalizeRequest(uint index) public restrictedToManager {... */\n    tag_19:\n        /* \"Campaign.sol\":931:938  manager */\n      0x00\n      dup1\n      sload\n      swap1\n      0x0100\n      exp\n      swap1\n      div\n      0xffffffffffffffffffffffffffffffffffffffff\n      and\n        /* \"Campaign.sol\":917:938  msg.sender == manager */\n      0xffffffffffffffffffffffffffffffffffffffff\n      and\n        /* \"Campaign.sol\":917:927  msg.sender */\n      caller\n        /* \"Campaign.sol\":917:938  msg.sender == manager */\n      0xffffffffffffffffffffffffffffffffffffffff\n      and\n      eq\n        /* \"Campaign.sol\":910:939  assert(msg.sender == manager) */\n      tag_72\n      jumpi\n      tag_73\n      tag_74\n      jump\t// in\n    tag_73:\n    tag_72:\n        /* \"Campaign.sol\":2373:2396  Request storage request */\n      0x00\n        /* \"Campaign.sol\":2399:2407  requests */\n      0x05\n        /* \"Campaign.sol\":2399:2414  requests[index] */\n      0x00\n        /* \"Campaign.sol\":2408:2413  index */\n      dup4\n        /* \"Campaign.sol\":2399:2414  requests[index] */\n      dup2\n      mstore\n      0x20\n      add\n      swap1\n      dup2\n      mstore\n      0x20\n      add\n      0x00\n      keccak256\n        /* \"Campaign.sol\":2373:2414  Request storage request = requests[index] */\n      swap1\n      pop\n        /* \"Campaign.sol\":2433:2440  request */\n      dup1\n        /* \"Campaign.sol\":2433:2449  request.complete */\n      0x02\n      add\n      0x14\n      swap1\n      sload\n      swap1\n      0x0100\n      exp\n      swap1\n      div\n      0xff\n      and\n        /* \"Campaign.sol\":2432:2449  !request.complete */\n      iszero\n        /* \"Campaign.sol\":2424:2450  require(!request.complete) */\n      tag_76\n      jumpi\n      0x00\n      dup1\n      revert\n    tag_76:\n        /* \"Campaign.sol\":2510:2511  2 */\n      0x02\n        /* \"Campaign.sol\":2493:2507  approversCount */\n      sload(0x03)\n        /* \"Campaign.sol\":2493:2511  approversCount / 2 */\n      tag_77\n      swap2\n      swap1\n      tag_78\n      jump\t// in\n    tag_77:\n        /* \"Campaign.sol\":2468:2475  request */\n      dup2\n        /* \"Campaign.sol\":2468:2489  request.approvalCount */\n      0x04\n      add\n      sload\n        /* \"Campaign.sol\":2468:2512  request.approvalCount > (approversCount / 2) */\n      gt\n        /* \"Campaign.sol\":2460:2513  require(request.approvalCount > (approversCount / 2)) */\n      tag_79\n      jumpi\n      0x00\n      dup1\n      revert\n    tag_79:\n        /* \"Campaign.sol\":2523:2530  request */\n      dup1\n        /* \"Campaign.sol\":2523:2540  request.recipient */\n      0x02\n      add\n      0x00\n      swap1\n      sload\n      swap1\n      0x0100\n      exp\n      swap1\n      div\n      0xffffffffffffffffffffffffffffffffffffffff\n      and\n        /* \"Campaign.sol\":2523:2549  request.recipient.transfer */\n      0xffffffffffffffffffffffffffffffffffffffff\n      and\n        /* \"Campaign.sol\":2523:2564  request.recipient.transfer(request.value) */\n      0x08fc\n        /* \"Campaign.sol\":2550:2557  request */\n      dup3\n        /* \"Campaign.sol\":2550:2563  request.value */\n      0x01\n      add\n      sload\n        /* \"Campaign.sol\":2523:2564  request.recipient.transfer(request.value) */\n      swap1\n      dup2\n      iszero\n      mul\n      swap1\n      mload(0x40)\n      0x00\n      mload(0x40)\n      dup1\n      dup4\n      sub\n      dup2\n      dup6\n      dup9\n      dup9\n      call\n      swap4\n      pop\n      pop\n      pop\n      pop\n      iszero\n      dup1\n      iszero\n      tag_81\n      jumpi\n      returndatasize\n      0x00\n      dup1\n      returndatacopy\n      revert(0x00, returndatasize)\n    tag_81:\n      pop\n        /* \"Campaign.sol\":2593:2597  true */\n      0x01\n        /* \"Campaign.sol\":2574:2581  request */\n      dup2\n        /* \"Campaign.sol\":2574:2590  request.complete */\n      0x02\n      add\n      0x14\n        /* \"Campaign.sol\":2574:2597  request.complete = true */\n      0x0100\n      exp\n      dup2\n      sload\n      dup2\n      0xff\n      mul\n      not\n      and\n      swap1\n      dup4\n      iszero\n      iszero\n      mul\n      or\n      swap1\n      sstore\n      pop\n        /* \"Campaign.sol\":2363:2604  {... */\n      pop\n        /* \"Campaign.sol\":2299:2604  function finalizeRequest(uint index) public restrictedToManager {... */\n      pop\n      jump\t// out\n        /* \"Campaign.sol\":712:753  mapping(address => bool) public approvers */\n    tag_24:\n      mstore(0x20, 0x02)\n      dup1\n      0x00\n      mstore\n      keccak256(0x00, 0x40)\n      0x00\n      swap2\n      pop\n      sload\n      swap1\n      0x0100\n      exp\n      swap1\n      div\n      0xff\n      and\n      dup2\n      jump\t// out\n        /* \"Campaign.sol\":2858:2948  function getRequestsCount() public view returns (uint) {... */\n    tag_29:\n        /* \"Campaign.sol\":2907:2911  uint */\n      0x00\n        /* \"Campaign.sol\":2930:2941  numRequests */\n      sload(0x04)\n        /* \"Campaign.sol\":2923:2941  return numRequests */\n      swap1\n      pop\n        /* \"Campaign.sol\":2858:2948  function getRequestsCount() public view returns (uint) {... */\n      swap1\n      jump\t// out\n        /* \"Campaign.sol\":2610:2852  function getSummary() public view returns (uint, uint, uint, uint, address) {... */\n    tag_34:\n        /* \"Campaign.sol\":2653:2657  uint */\n      0x00\n        /* \"Campaign.sol\":2659:2663  uint */\n      dup1\n        /* \"Campaign.sol\":2665:2669  uint */\n      0x00\n        /* \"Campaign.sol\":2671:2675  uint */\n      dup1\n        /* \"Campaign.sol\":2677:2684  address */\n      0x00\n        /* \"Campaign.sol\":2715:2734  minimumContribution */\n      sload(0x01)\n        /* \"Campaign.sol\":2746:2767  address(this).balance */\n      selfbalance\n        /* \"Campaign.sol\":2779:2790  numRequests */\n      sload(0x04)\n        /* \"Campaign.sol\":2802:2816  approversCount */\n      sload(0x03)\n        /* \"Campaign.sol\":2828:2835  manager */\n      0x00\n      dup1\n      sload\n      swap1\n      0x0100\n      exp\n      swap1\n      div\n      0xffffffffffffffffffffffffffffffffffffffff\n      and\n        /* \"Campaign.sol\":2696:2845  return (... */\n      swap5\n      pop\n      swap5\n      pop\n      swap5\n      pop\n      swap5\n      pop\n      swap5\n      pop\n        /* \"Campaign.sol\":2610:2852  function getSummary() public view returns (uint, uint, uint, uint, address) {... */\n      swap1\n      swap2\n      swap3\n      swap4\n      swap5\n      jump\t// out\n        /* \"Campaign.sol\":647:669  address public manager */\n    tag_39:\n      0x00\n      dup1\n      sload\n      swap1\n      0x0100\n      exp\n      swap1\n      div\n      0xffffffffffffffffffffffffffffffffffffffff\n      and\n      dup2\n      jump\t// out\n        /* \"Campaign.sol\":820:861  mapping (uint => Request) public requests */\n    tag_45:\n      mstore(0x20, 0x05)\n      dup1\n      0x00\n      mstore\n      keccak256(0x00, 0x40)\n      0x00\n      swap2\n      pop\n      swap1\n      pop\n      dup1\n      0x00\n      add\n      dup1\n      sload\n      tag_84\n      swap1\n      tag_85\n      jump\t// in\n    tag_84:\n      dup1\n      0x1f\n      add\n      0x20\n      dup1\n      swap2\n      div\n      mul\n      0x20\n      add\n      mload(0x40)\n      swap1\n      dup2\n      add\n      0x40\n      mstore\n      dup1\n      swap3\n      swap2\n      swap1\n      dup2\n      dup2\n      mstore\n      0x20\n      add\n      dup3\n      dup1\n      sload\n      tag_86\n      swap1\n      tag_85\n      jump\t// in\n    tag_86:\n      dup1\n      iszero\n      tag_87\n      jumpi\n      dup1\n      0x1f\n      lt\n      tag_88\n      jumpi\n      0x0100\n      dup1\n      dup4\n      sload\n      div\n      mul\n      dup4\n      mstore\n      swap2\n      0x20\n      add\n      swap2\n      jump(tag_87)\n    tag_88:\n      dup3\n      add\n      swap2\n      swap1\n      0x00\n      mstore\n      keccak256(0x00, 0x20)\n      swap1\n    tag_89:\n      dup2\n      sload\n      dup2\n      mstore\n      swap1\n      0x01\n      add\n      swap1\n      0x20\n      add\n      dup1\n      dup4\n      gt\n      tag_89\n      jumpi\n      dup3\n      swap1\n      sub\n      0x1f\n      and\n      dup3\n      add\n      swap2\n    tag_87:\n      pop\n      pop\n      pop\n      pop\n      pop\n      swap1\n      dup1\n      0x01\n      add\n      sload\n      swap1\n      dup1\n      0x02\n      add\n      0x00\n      swap1\n      sload\n      swap1\n      0x0100\n      exp\n      swap1\n      div\n      0xffffffffffffffffffffffffffffffffffffffff\n      and\n      swap1\n      dup1\n      0x02\n      add\n      0x14\n      swap1\n      sload\n      swap1\n      0x0100\n      exp\n      swap1\n      div\n      0xff\n      and\n      swap1\n      dup1\n      0x04\n      add\n      sload\n      swap1\n      pop\n      dup6\n      jump\t// out\n        /* \"Campaign.sol\":759:785  uint public approversCount */\n    tag_50:\n      sload(0x03)\n      dup2\n      jump\t// out\n        /* \"Campaign.sol\":1250:1778  function createRequest(string memory description, uint value, address payable recipient) public restrictedToManager {... */\n    tag_56:\n        /* \"Campaign.sol\":931:938  manager */\n      0x00\n      dup1\n      sload\n      swap1\n      0x0100\n      exp\n      swap1\n      div\n      0xffffffffffffffffffffffffffffffffffffffff\n      and\n        /* \"Campaign.sol\":917:938  msg.sender == manager */\n      0xffffffffffffffffffffffffffffffffffffffff\n      and\n        /* \"Campaign.sol\":917:927  msg.sender */\n      caller\n        /* \"Campaign.sol\":917:938  msg.sender == manager */\n      0xffffffffffffffffffffffffffffffffffffffff\n      and\n      eq\n        /* \"Campaign.sol\":910:939  assert(msg.sender == manager) */\n      tag_91\n      jumpi\n      tag_92\n      tag_74\n      jump\t// in\n    tag_92:\n    tag_91:\n        /* \"Campaign.sol\":1426:1452  Request storage newRequest */\n      0x00\n        /* \"Campaign.sol\":1455:1463  requests */\n      0x05\n        /* \"Campaign.sol\":1455:1476  requests[numRequests] */\n      0x00\n        /* \"Campaign.sol\":1464:1475  numRequests */\n      sload(0x04)\n        /* \"Campaign.sol\":1455:1476  requests[numRequests] */\n      dup2\n      mstore\n      0x20\n      add\n      swap1\n      dup2\n      mstore\n      0x20\n      add\n      0x00\n      keccak256\n        /* \"Campaign.sol\":1426:1476  Request storage newRequest = requests[numRequests] */\n      swap1\n      pop\n        /* \"Campaign.sol\":1521:1532  numRequests */\n      0x04\n      0x00\n        /* \"Campaign.sol\":1521:1535  numRequests ++ */\n      dup2\n      sload\n      dup1\n      swap3\n      swap2\n      swap1\n      tag_94\n      swap1\n      tag_95\n      jump\t// in\n    tag_94:\n      swap2\n      swap1\n      pop\n      sstore\n      pop\n        /* \"Campaign.sol\":1613:1624  description */\n      dup4\n        /* \"Campaign.sol\":1588:1598  newRequest */\n      dup2\n        /* \"Campaign.sol\":1588:1610  newRequest.description */\n      0x00\n      add\n        /* \"Campaign.sol\":1588:1624  newRequest.description = description */\n      swap1\n      dup2\n      tag_96\n      swap2\n      swap1\n      tag_97\n      jump\t// in\n    tag_96:\n      pop\n        /* \"Campaign.sol\":1652:1657  value */\n      dup3\n        /* \"Campaign.sol\":1633:1643  newRequest */\n      dup2\n        /* \"Campaign.sol\":1633:1649  newRequest.value */\n      0x01\n      add\n        /* \"Campaign.sol\":1633:1657  newRequest.value = value */\n      dup2\n      swap1\n      sstore\n      pop\n        /* \"Campaign.sol\":1689:1698  recipient */\n      dup2\n        /* \"Campaign.sol\":1666:1676  newRequest */\n      dup2\n        /* \"Campaign.sol\":1666:1686  newRequest.recipient */\n      0x02\n      add\n      0x00\n        /* \"Campaign.sol\":1666:1698  newRequest.recipient = recipient */\n      0x0100\n      exp\n      dup2\n      sload\n      dup2\n      0xffffffffffffffffffffffffffffffffffffffff\n      mul\n      not\n      and\n      swap1\n      dup4\n      0xffffffffffffffffffffffffffffffffffffffff\n      and\n      mul\n      or\n      swap1\n      sstore\n      pop\n        /* \"Campaign.sol\":1729:1734  false */\n      0x00\n        /* \"Campaign.sol\":1707:1717  newRequest */\n      dup2\n        /* \"Campaign.sol\":1707:1726  newRequest.complete */\n      0x02\n      add\n      0x14\n        /* \"Campaign.sol\":1707:1734  newRequest.complete = false */\n      0x0100\n      exp\n      dup2\n      sload\n      dup2\n      0xff\n      mul\n      not\n      and\n      swap1\n      dup4\n      iszero\n      iszero\n      mul\n      or\n      swap1\n      sstore\n      pop\n        /* \"Campaign.sol\":1770:1771  0 */\n      0x00\n        /* \"Campaign.sol\":1743:1753  newRequest */\n      dup2\n        /* \"Campaign.sol\":1743:1767  newRequest.approvalCount */\n      0x04\n      add\n        /* \"Campaign.sol\":1743:1771  newRequest.approvalCount = 0 */\n      dup2\n      swap1\n      sstore\n      pop\n        /* \"Campaign.sol\":1366:1778  {... */\n      pop\n        /* \"Campaign.sol\":1250:1778  function createRequest(string memory description, uint value, address payable recipient) public restrictedToManager {... */\n      pop\n      pop\n      pop\n      jump\t// out\n        /* \"Campaign.sol\":675:706  uint public minimumContribution */\n    tag_59:\n      sload(0x01)\n      dup2\n      jump\t// out\n        /* \"Campaign.sol\":791:814  uint public numRequests */\n    tag_63:\n      sload(0x04)\n      dup2\n      jump\t// out\n        /* \"Campaign.sol\":1085:1244  function contribute() public payable {... */\n    tag_66:\n        /* \"Campaign.sol\":1152:1171  minimumContribution */\n      sload(0x01)\n        /* \"Campaign.sol\":1140:1149  msg.value */\n      callvalue\n        /* \"Campaign.sol\":1140:1171  msg.value > minimumContribution */\n      gt\n        /* \"Campaign.sol\":1132:1172  require(msg.value > minimumContribution) */\n      tag_99\n      jumpi\n      0x00\n      dup1\n      revert\n    tag_99:\n        /* \"Campaign.sol\":1206:1210  true */\n      0x01\n        /* \"Campaign.sol\":1182:1191  approvers */\n      0x02\n        /* \"Campaign.sol\":1182:1203  approvers[msg.sender] */\n      0x00\n        /* \"Campaign.sol\":1192:1202  msg.sender */\n      caller\n        /* \"Campaign.sol\":1182:1203  approvers[msg.sender] */\n      0xffffffffffffffffffffffffffffffffffffffff\n      and\n      0xffffffffffffffffffffffffffffffffffffffff\n      and\n      dup2\n      mstore\n      0x20\n      add\n      swap1\n      dup2\n      mstore\n      0x20\n      add\n      0x00\n      keccak256\n      0x00\n        /* \"Campaign.sol\":1182:1210  approvers[msg.sender] = true */\n      0x0100\n      exp\n      dup2\n      sload\n      dup2\n      0xff\n      mul\n      not\n      and\n      swap1\n      dup4\n      iszero\n      iszero\n      mul\n      or\n      swap1\n      sstore\n      pop\n        /* \"Campaign.sol\":1220:1234  approversCount */\n      0x03\n      0x00\n        /* \"Campaign.sol\":1220:1237  approversCount ++ */\n      dup2\n      sload\n      dup1\n      swap3\n      swap2\n      swap1\n      tag_100\n      swap1\n      tag_95\n      jump\t// in\n    tag_100:\n      swap2\n      swap1\n      pop\n      sstore\n      pop\n        /* \"Campaign.sol\":1085:1244  function contribute() public payable {... */\n      jump\t// out\n        /* \"Campaign.sol\":1784:2293  function approveRequest(uint index) public {... */\n    tag_70:\n        /* \"Campaign.sol\":1891:1914  Request storage request */\n      0x00\n        /* \"Campaign.sol\":1917:1925  requests */\n      0x05\n        /* \"Campaign.sol\":1917:1932  requests[index] */\n      0x00\n        /* \"Campaign.sol\":1926:1931  index */\n      dup4\n        /* \"Campaign.sol\":1917:1932  requests[index] */\n      dup2\n      mstore\n      0x20\n      add\n      swap1\n      dup2\n      mstore\n      0x20\n      add\n      0x00\n      keccak256\n        /* \"Campaign.sol\":1891:1932  Request storage request = requests[index] */\n      swap1\n      pop\n        /* \"Campaign.sol\":2006:2015  approvers */\n      0x02\n        /* \"Campaign.sol\":2006:2027  approvers[msg.sender] */\n      0x00\n        /* \"Campaign.sol\":2016:2026  msg.sender */\n      caller\n        /* \"Campaign.sol\":2006:2027  approvers[msg.sender] */\n      0xffffffffffffffffffffffffffffffffffffffff\n      and\n      0xffffffffffffffffffffffffffffffffffffffff\n      and\n      dup2\n      mstore\n      0x20\n      add\n      swap1\n      dup2\n      mstore\n      0x20\n      add\n      0x00\n      keccak256\n      0x00\n      swap1\n      sload\n      swap1\n      0x0100\n      exp\n      swap1\n      div\n      0xff\n      and\n        /* \"Campaign.sol\":1998:2028  require(approvers[msg.sender]) */\n      tag_102\n      jumpi\n      0x00\n      dup1\n      revert\n    tag_102:\n        /* \"Campaign.sol\":2089:2096  request */\n      dup1\n        /* \"Campaign.sol\":2089:2106  request.approvals */\n      0x03\n      add\n        /* \"Campaign.sol\":2089:2118  request.approvals[msg.sender] */\n      0x00\n        /* \"Campaign.sol\":2107:2117  msg.sender */\n      caller\n        /* \"Campaign.sol\":2089:2118  request.approvals[msg.sender] */\n      0xffffffffffffffffffffffffffffffffffffffff\n      and\n      0xffffffffffffffffffffffffffffffffffffffff\n      and\n      dup2\n      mstore\n      0x20\n      add\n      swap1\n      dup2\n      mstore\n      0x20\n      add\n      0x00\n      keccak256\n      0x00\n      swap1\n      sload\n      swap1\n      0x0100\n      exp\n      swap1\n      div\n      0xff\n      and\n        /* \"Campaign.sol\":2088:2118  !request.approvals[msg.sender] */\n      iszero\n        /* \"Campaign.sol\":2080:2119  require(!request.approvals[msg.sender]) */\n      tag_103\n      jumpi\n      0x00\n      dup1\n      revert\n    tag_103:\n        /* \"Campaign.sol\":2212:2216  true */\n      0x01\n        /* \"Campaign.sol\":2180:2187  request */\n      dup2\n        /* \"Campaign.sol\":2180:2197  request.approvals */\n      0x03\n      add\n        /* \"Campaign.sol\":2180:2209  request.approvals[msg.sender] */\n      0x00\n        /* \"Campaign.sol\":2198:2208  msg.sender */\n      caller\n        /* \"Campaign.sol\":2180:2209  request.approvals[msg.sender] */\n      0xffffffffffffffffffffffffffffffffffffffff\n      and\n      0xffffffffffffffffffffffffffffffffffffffff\n      and\n      dup2\n      mstore\n      0x20\n      add\n      swap1\n      dup2\n      mstore\n      0x20\n      add\n      0x00\n      keccak256\n      0x00\n        /* \"Campaign.sol\":2180:2216  request.approvals[msg.sender] = true */\n      0x0100\n      exp\n      dup2\n      sload\n      dup2\n      0xff\n      mul\n      not\n      and\n      swap1\n      dup4\n      iszero\n      iszero\n      mul\n      or\n      swap1\n      sstore\n      pop\n        /* \"Campaign.sol\":2262:2269  request */\n      dup1\n        /* \"Campaign.sol\":2262:2283  request.approvalCount */\n      0x04\n      add\n      0x00\n        /* \"Campaign.sol\":2262:2286  request.approvalCount ++ */\n      dup2\n      sload\n      dup1\n      swap3\n      swap2\n      swap1\n      tag_104\n      swap1\n      tag_95\n      jump\t// in\n    tag_104:\n      swap2\n      swap1\n      pop\n      sstore\n      pop\n        /* \"Campaign.sol\":1827:2293  {... */\n      pop\n        /* \"Campaign.sol\":1784:2293  function approveRequest(uint index) public {... */\n      pop\n      jump\t// out\n        /* \"#utility.yul\":7:82   */\n    tag_105:\n        /* \"#utility.yul\":40:46   */\n      0x00\n        /* \"#utility.yul\":73:75   */\n      0x40\n        /* \"#utility.yul\":67:76   */\n      mload\n        /* \"#utility.yul\":57:76   */\n      swap1\n      pop\n        /* \"#utility.yul\":7:82   */\n      swap1\n      jump\t// out\n        /* \"#utility.yul\":88:205   */\n    tag_106:\n        /* \"#utility.yul\":197:198   */\n      0x00\n        /* \"#utility.yul\":194:195   */\n      dup1\n        /* \"#utility.yul\":187:199   */\n      revert\n        /* \"#utility.yul\":211:328   */\n    tag_107:\n        /* \"#utility.yul\":320:321   */\n      0x00\n        /* \"#utility.yul\":317:318   */\n      dup1\n        /* \"#utility.yul\":310:322   */\n      revert\n        /* \"#utility.yul\":334:411   */\n    tag_108:\n        /* \"#utility.yul\":371:378   */\n      0x00\n        /* \"#utility.yul\":400:405   */\n      dup2\n        /* \"#utility.yul\":389:405   */\n      swap1\n      pop\n        /* \"#utility.yul\":334:411   */\n      swap2\n      swap1\n      pop\n      jump\t// out\n        /* \"#utility.yul\":417:539   */\n    tag_109:\n        /* \"#utility.yul\":490:514   */\n      tag_161\n        /* \"#utility.yul\":508:513   */\n      dup2\n        /* \"#utility.yul\":490:514   */\n      tag_108\n      jump\t// in\n    tag_161:\n        /* \"#utility.yul\":483:488   */\n      dup2\n        /* \"#utility.yul\":480:515   */\n      eq\n        /* \"#utility.yul\":470:533   */\n      tag_162\n      jumpi\n        /* \"#utility.yul\":529:530   */\n      0x00\n        /* \"#utility.yul\":526:527   */\n      dup1\n        /* \"#utility.yul\":519:531   */\n      revert\n        /* \"#utility.yul\":470:533   */\n    tag_162:\n        /* \"#utility.yul\":417:539   */\n      pop\n      jump\t// out\n        /* \"#utility.yul\":545:684   */\n    tag_110:\n        /* \"#utility.yul\":591:596   */\n      0x00\n        /* \"#utility.yul\":629:635   */\n      dup2\n        /* \"#utility.yul\":616:636   */\n      calldataload\n        /* \"#utility.yul\":607:636   */\n      swap1\n      pop\n        /* \"#utility.yul\":645:678   */\n      tag_164\n        /* \"#utility.yul\":672:677   */\n      dup2\n        /* \"#utility.yul\":645:678   */\n      tag_109\n      jump\t// in\n    tag_164:\n        /* \"#utility.yul\":545:684   */\n      swap3\n      swap2\n      pop\n      pop\n      jump\t// out\n        /* \"#utility.yul\":690:1019   */\n    tag_18:\n        /* \"#utility.yul\":749:755   */\n      0x00\n        /* \"#utility.yul\":798:800   */\n      0x20\n        /* \"#utility.yul\":786:795   */\n      dup3\n        /* \"#utility.yul\":777:784   */\n      dup5\n        /* \"#utility.yul\":773:796   */\n      sub\n        /* \"#utility.yul\":769:801   */\n      slt\n        /* \"#utility.yul\":766:885   */\n      iszero\n      tag_166\n      jumpi\n        /* \"#utility.yul\":804:883   */\n      tag_167\n      tag_106\n      jump\t// in\n    tag_167:\n        /* \"#utility.yul\":766:885   */\n    tag_166:\n        /* \"#utility.yul\":924:925   */\n      0x00\n        /* \"#utility.yul\":949:1002   */\n      tag_168\n        /* \"#utility.yul\":994:1001   */\n      dup5\n        /* \"#utility.yul\":985:991   */\n      dup3\n        /* \"#utility.yul\":974:983   */\n      dup6\n        /* \"#utility.yul\":970:992   */\n      add\n        /* \"#utility.yul\":949:1002   */\n      tag_110\n      jump\t// in\n    tag_168:\n        /* \"#utility.yul\":939:1002   */\n      swap2\n      pop\n        /* \"#utility.yul\":895:1012   */\n      pop\n        /* \"#utility.yul\":690:1019   */\n      swap3\n      swap2\n      pop\n      pop\n      jump\t// out\n        /* \"#utility.yul\":1025:1151   */\n    tag_111:\n        /* \"#utility.yul\":1062:1069   */\n      0x00\n        /* \"#utility.yul\":1102:1144   */\n      0xffffffffffffffffffffffffffffffffffffffff\n        /* \"#utility.yul\":1095:1100   */\n      dup3\n        /* \"#utility.yul\":1091:1145   */\n      and\n        /* \"#utility.yul\":1080:1145   */\n      swap1\n      pop\n        /* \"#utility.yul\":1025:1151   */\n      swap2\n      swap1\n      pop\n      jump\t// out\n        /* \"#utility.yul\":1157:1253   */\n    tag_112:\n        /* \"#utility.yul\":1194:1201   */\n      0x00\n        /* \"#utility.yul\":1223:1247   */\n      tag_171\n        /* \"#utility.yul\":1241:1246   */\n      dup3\n        /* \"#utility.yul\":1223:1247   */\n      tag_111\n      jump\t// in\n    tag_171:\n        /* \"#utility.yul\":1212:1247   */\n      swap1\n      pop\n        /* \"#utility.yul\":1157:1253   */\n      swap2\n      swap1\n      pop\n      jump\t// out\n        /* \"#utility.yul\":1259:1381   */\n    tag_113:\n        /* \"#utility.yul\":1332:1356   */\n      tag_173\n        /* \"#utility.yul\":1350:1355   */\n      dup2\n        /* \"#utility.yul\":1332:1356   */\n      tag_112\n      jump\t// in\n    tag_173:\n        /* \"#utility.yul\":1325:1330   */\n      dup2\n        /* \"#utility.yul\":1322:1357   */\n      eq\n        /* \"#utility.yul\":1312:1375   */\n      tag_174\n      jumpi\n        /* \"#utility.yul\":1371:1372   */\n      0x00\n        /* \"#utility.yul\":1368:1369   */\n      dup1\n        /* \"#utility.yul\":1361:1373   */\n      revert\n        /* \"#utility.yul\":1312:1375   */\n    tag_174:\n        /* \"#utility.yul\":1259:1381   */\n      pop\n      jump\t// out\n        /* \"#utility.yul\":1387:1526   */\n    tag_114:\n        /* \"#utility.yul\":1433:1438   */\n      0x00\n        /* \"#utility.yul\":1471:1477   */\n      dup2\n        /* \"#utility.yul\":1458:1478   */\n      calldataload\n        /* \"#utility.yul\":1449:1478   */\n      swap1\n      pop\n        /* \"#utility.yul\":1487:1520   */\n      tag_176\n        /* \"#utility.yul\":1514:1519   */\n      dup2\n        /* \"#utility.yul\":1487:1520   */\n      tag_113\n      jump\t// in\n    tag_176:\n        /* \"#utility.yul\":1387:1526   */\n      swap3\n      swap2\n      pop\n      pop\n      jump\t// out\n        /* \"#utility.yul\":1532:1861   */\n    tag_23:\n        /* \"#utility.yul\":1591:1597   */\n      0x00\n        /* \"#utility.yul\":1640:1642   */\n      0x20\n        /* \"#utility.yul\":1628:1637   */\n      dup3\n        /* \"#utility.yul\":1619:1626   */\n      dup5\n        /* \"#utility.yul\":1615:1638   */\n      sub\n        /* \"#utility.yul\":1611:1643   */\n      slt\n        /* \"#utility.yul\":1608:1727   */\n      iszero\n      tag_178\n      jumpi\n        /* \"#utility.yul\":1646:1725   */\n      tag_179\n      tag_106\n      jump\t// in\n    tag_179:\n        /* \"#utility.yul\":1608:1727   */\n    tag_178:\n        /* \"#utility.yul\":1766:1767   */\n      0x00\n        /* \"#utility.yul\":1791:1844   */\n      tag_180\n        /* \"#utility.yul\":1836:1843   */\n      dup5\n        /* \"#utility.yul\":1827:1833   */\n      dup3\n        /* \"#utility.yul\":1816:1825   */\n      dup6\n        /* \"#utility.yul\":1812:1834   */\n      add\n        /* \"#utility.yul\":1791:1844   */\n      tag_114\n      jump\t// in\n    tag_180:\n        /* \"#utility.yul\":1781:1844   */\n      swap2\n      pop\n        /* \"#utility.yul\":1737:1854   */\n      pop\n        /* \"#utility.yul\":1532:1861   */\n      swap3\n      swap2\n      pop\n      pop\n      jump\t// out\n        /* \"#utility.yul\":1867:1957   */\n    tag_115:\n        /* \"#utility.yul\":1901:1908   */\n      0x00\n        /* \"#utility.yul\":1944:1949   */\n      dup2\n        /* \"#utility.yul\":1937:1950   */\n      iszero\n        /* \"#utility.yul\":1930:1951   */\n      iszero\n        /* \"#utility.yul\":1919:1951   */\n      swap1\n      pop\n        /* \"#utility.yul\":1867:1957   */\n      swap2\n      swap1\n      pop\n      jump\t// out\n        /* \"#utility.yul\":1963:2072   */\n    tag_116:\n        /* \"#utility.yul\":2044:2065   */\n      tag_183\n        /* \"#utility.yul\":2059:2064   */\n      dup2\n        /* \"#utility.yul\":2044:2065   */\n      tag_115\n      jump\t// in\n    tag_183:\n        /* \"#utility.yul\":2039:2042   */\n      dup3\n        /* \"#utility.yul\":2032:2066   */\n      mstore\n        /* \"#utility.yul\":1963:2072   */\n      pop\n      pop\n      jump\t// out\n        /* \"#utility.yul\":2078:2288   */\n    tag_26:\n        /* \"#utility.yul\":2165:2169   */\n      0x00\n        /* \"#utility.yul\":2203:2205   */\n      0x20\n        /* \"#utility.yul\":2192:2201   */\n      dup3\n        /* \"#utility.yul\":2188:2206   */\n      add\n        /* \"#utility.yul\":2180:2206   */\n      swap1\n      pop\n        /* \"#utility.yul\":2216:2281   */\n      tag_185\n        /* \"#utility.yul\":2278:2279   */\n      0x00\n        /* \"#utility.yul\":2267:2276   */\n      dup4\n        /* \"#utility.yul\":2263:2280   */\n      add\n        /* \"#utility.yul\":2254:2260   */\n      dup5\n        /* \"#utility.yul\":2216:2281   */\n      tag_116\n      jump\t// in\n    tag_185:\n        /* \"#utility.yul\":2078:2288   */\n      swap3\n      swap2\n      pop\n      pop\n      jump\t// out\n        /* \"#utility.yul\":2294:2412   */\n    tag_117:\n        /* \"#utility.yul\":2381:2405   */\n      tag_187\n        /* \"#utility.yul\":2399:2404   */\n      dup2\n        /* \"#utility.yul\":2381:2405   */\n      tag_108\n      jump\t// in\n    tag_187:\n        /* \"#utility.yul\":2376:2379   */\n      dup3\n        /* \"#utility.yul\":2369:2406   */\n      mstore\n        /* \"#utility.yul\":2294:2412   */\n      pop\n      pop\n      jump\t// out\n        /* \"#utility.yul\":2418:2640   */\n    tag_31:\n        /* \"#utility.yul\":2511:2515   */\n      0x00\n        /* \"#utility.yul\":2549:2551   */\n      0x20\n        /* \"#utility.yul\":2538:2547   */\n      dup3\n        /* \"#utility.yul\":2534:2552   */\n      add\n        /* \"#utility.yul\":2526:2552   */\n      swap1\n      pop\n        /* \"#utility.yul\":2562:2633   */\n      tag_189\n        /* \"#utility.yul\":2630:2631   */\n      0x00\n        /* \"#utility.yul\":2619:2628   */\n      dup4\n        /* \"#utility.yul\":2615:2632   */\n      add\n        /* \"#utility.yul\":2606:2612   */\n      dup5\n        /* \"#utility.yul\":2562:2633   */\n      tag_117\n      jump\t// in\n    tag_189:\n        /* \"#utility.yul\":2418:2640   */\n      swap3\n      swap2\n      pop\n      pop\n      jump\t// out\n        /* \"#utility.yul\":2646:2764   */\n    tag_118:\n        /* \"#utility.yul\":2733:2757   */\n      tag_191\n        /* \"#utility.yul\":2751:2756   */\n      dup2\n        /* \"#utility.yul\":2733:2757   */\n      tag_112\n      jump\t// in\n    tag_191:\n        /* \"#utility.yul\":2728:2731   */\n      dup3\n        /* \"#utility.yul\":2721:2758   */\n      mstore\n        /* \"#utility.yul\":2646:2764   */\n      pop\n      pop\n      jump\t// out\n        /* \"#utility.yul\":2770:3434   */\n    tag_36:\n        /* \"#utility.yul\":2975:2979   */\n      0x00\n        /* \"#utility.yul\":3013:3016   */\n      0xa0\n        /* \"#utility.yul\":3002:3011   */\n      dup3\n        /* \"#utility.yul\":2998:3017   */\n      add\n        /* \"#utility.yul\":2990:3017   */\n      swap1\n      pop\n        /* \"#utility.yul\":3027:3098   */\n      tag_193\n        /* \"#utility.yul\":3095:3096   */\n      0x00\n        /* \"#utility.yul\":3084:3093   */\n      dup4\n        /* \"#utility.yul\":3080:3097   */\n      add\n        /* \"#utility.yul\":3071:3077   */\n      dup9\n        /* \"#utility.yul\":3027:3098   */\n      tag_117\n      jump\t// in\n    tag_193:\n        /* \"#utility.yul\":3108:3180   */\n      tag_194\n        /* \"#utility.yul\":3176:3178   */\n      0x20\n        /* \"#utility.yul\":3165:3174   */\n      dup4\n        /* \"#utility.yul\":3161:3179   */\n      add\n        /* \"#utility.yul\":3152:3158   */\n      dup8\n        /* \"#utility.yul\":3108:3180   */\n      tag_117\n      jump\t// in\n    tag_194:\n        /* \"#utility.yul\":3190:3262   */\n      tag_195\n        /* \"#utility.yul\":3258:3260   */\n      0x40\n        /* \"#utility.yul\":3247:3256   */\n      dup4\n        /* \"#utility.yul\":3243:3261   */\n      add\n        /* \"#utility.yul\":3234:3240   */\n      dup7\n        /* \"#utility.yul\":3190:3262   */\n      tag_117\n      jump\t// in\n    tag_195:\n        /* \"#utility.yul\":3272:3344   */\n      tag_196\n        /* \"#utility.yul\":3340:3342   */\n      0x60\n        /* \"#utility.yul\":3329:3338   */\n      dup4\n        /* \"#utility.yul\":3325:3343   */\n      add\n        /* \"#utility.yul\":3316:3322   */\n      dup6\n        /* \"#utility.yul\":3272:3344   */\n      tag_117\n      jump\t// in\n    tag_196:\n        /* \"#utility.yul\":3354:3427   */\n      tag_197\n        /* \"#utility.yul\":3422:3425   */\n      0x80\n        /* \"#utility.yul\":3411:3420   */\n      dup4\n        /* \"#utility.yul\":3407:3426   */\n      add\n        /* \"#utility.yul\":3398:3404   */\n      dup5\n        /* \"#utility.yul\":3354:3427   */\n      tag_118\n      jump\t// in\n    tag_197:\n        /* \"#utility.yul\":2770:3434   */\n      swap7\n      swap6\n      pop\n      pop\n      pop\n      pop\n      pop\n      pop\n      jump\t// out\n        /* \"#utility.yul\":3440:3662   */\n    tag_41:\n        /* \"#utility.yul\":3533:3537   */\n      0x00\n        /* \"#utility.yul\":3571:3573   */\n      0x20\n        /* \"#utility.yul\":3560:3569   */\n      dup3\n        /* \"#utility.yul\":3556:3574   */\n      add\n        /* \"#utility.yul\":3548:3574   */\n      swap1\n      pop\n        /* \"#utility.yul\":3584:3655   */\n      tag_199\n        /* \"#utility.yul\":3652:3653   */\n      0x00\n        /* \"#utility.yul\":3641:3650   */\n      dup4\n        /* \"#utility.yul\":3637:3654   */\n      add\n        /* \"#utility.yul\":3628:3634   */\n      dup5\n        /* \"#utility.yul\":3584:3655   */\n      tag_118\n      jump\t// in\n    tag_199:\n        /* \"#utility.yul\":3440:3662   */\n      swap3\n      swap2\n      pop\n      pop\n      jump\t// out\n        /* \"#utility.yul\":3668:3767   */\n    tag_119:\n        /* \"#utility.yul\":3720:3726   */\n      0x00\n        /* \"#utility.yul\":3754:3759   */\n      dup2\n        /* \"#utility.yul\":3748:3760   */\n      mload\n        /* \"#utility.yul\":3738:3760   */\n      swap1\n      pop\n        /* \"#utility.yul\":3668:3767   */\n      swap2\n      swap1\n      pop\n      jump\t// out\n        /* \"#utility.yul\":3773:3942   */\n    tag_120:\n        /* \"#utility.yul\":3857:3868   */\n      0x00\n        /* \"#utility.yul\":3891:3897   */\n      dup3\n        /* \"#utility.yul\":3886:3889   */\n      dup3\n        /* \"#utility.yul\":3879:3898   */\n      mstore\n        /* \"#utility.yul\":3931:3935   */\n      0x20\n        /* \"#utility.yul\":3926:3929   */\n      dup3\n        /* \"#utility.yul\":3922:3936   */\n      add\n        /* \"#utility.yul\":3907:3936   */\n      swap1\n      pop\n        /* \"#utility.yul\":3773:3942   */\n      swap3\n      swap2\n      pop\n      pop\n      jump\t// out\n        /* \"#utility.yul\":3948:4255   */\n    tag_121:\n        /* \"#utility.yul\":4016:4017   */\n      0x00\n        /* \"#utility.yul\":4026:4139   */\n    tag_203:\n        /* \"#utility.yul\":4040:4046   */\n      dup4\n        /* \"#utility.yul\":4037:4038   */\n      dup2\n        /* \"#utility.yul\":4034:4047   */\n      lt\n        /* \"#utility.yul\":4026:4139   */\n      iszero\n      tag_205\n      jumpi\n        /* \"#utility.yul\":4125:4126   */\n      dup1\n        /* \"#utility.yul\":4120:4123   */\n      dup3\n        /* \"#utility.yul\":4116:4127   */\n      add\n        /* \"#utility.yul\":4110:4128   */\n      mload\n        /* \"#utility.yul\":4106:4107   */\n      dup2\n        /* \"#utility.yul\":4101:4104   */\n      dup5\n        /* \"#utility.yul\":4097:4108   */\n      add\n        /* \"#utility.yul\":4090:4129   */\n      mstore\n        /* \"#utility.yul\":4062:4064   */\n      0x20\n        /* \"#utility.yul\":4059:4060   */\n      dup2\n        /* \"#utility.yul\":4055:4065   */\n      add\n        /* \"#utility.yul\":4050:4065   */\n      swap1\n      pop\n        /* \"#utility.yul\":4026:4139   */\n      jump(tag_203)\n    tag_205:\n        /* \"#utility.yul\":4157:4163   */\n      dup4\n        /* \"#utility.yul\":4154:4155   */\n      dup2\n        /* \"#utility.yul\":4151:4164   */\n      gt\n        /* \"#utility.yul\":4148:4249   */\n      iszero\n      tag_206\n      jumpi\n        /* \"#utility.yul\":4237:4238   */\n      0x00\n        /* \"#utility.yul\":4228:4234   */\n      dup5\n        /* \"#utility.yul\":4223:4226   */\n      dup5\n        /* \"#utility.yul\":4219:4235   */\n      add\n        /* \"#utility.yul\":4212:4239   */\n      mstore\n        /* \"#utility.yul\":4148:4249   */\n    tag_206:\n        /* \"#utility.yul\":3997:4255   */\n      pop\n        /* \"#utility.yul\":3948:4255   */\n      pop\n      pop\n      pop\n      jump\t// out\n        /* \"#utility.yul\":4261:4363   */\n    tag_122:\n        /* \"#utility.yul\":4302:4308   */\n      0x00\n        /* \"#utility.yul\":4353:4355   */\n      0x1f\n        /* \"#utility.yul\":4349:4356   */\n      not\n        /* \"#utility.yul\":4344:4346   */\n      0x1f\n        /* \"#utility.yul\":4337:4342   */\n      dup4\n        /* \"#utility.yul\":4333:4347   */\n      add\n        /* \"#utility.yul\":4329:4357   */\n      and\n        /* \"#utility.yul\":4319:4357   */\n      swap1\n      pop\n        /* \"#utility.yul\":4261:4363   */\n      swap2\n      swap1\n      pop\n      jump\t// out\n        /* \"#utility.yul\":4369:4733   */\n    tag_123:\n        /* \"#utility.yul\":4457:4460   */\n      0x00\n        /* \"#utility.yul\":4485:4524   */\n      tag_209\n        /* \"#utility.yul\":4518:4523   */\n      dup3\n        /* \"#utility.yul\":4485:4524   */\n      tag_119\n      jump\t// in\n    tag_209:\n        /* \"#utility.yul\":4540:4611   */\n      tag_210\n        /* \"#utility.yul\":4604:4610   */\n      dup2\n        /* \"#utility.yul\":4599:4602   */\n      dup6\n        /* \"#utility.yul\":4540:4611   */\n      tag_120\n      jump\t// in\n    tag_210:\n        /* \"#utility.yul\":4533:4611   */\n      swap4\n      pop\n        /* \"#utility.yul\":4620:4672   */\n      tag_211\n        /* \"#utility.yul\":4665:4671   */\n      dup2\n        /* \"#utility.yul\":4660:4663   */\n      dup6\n        /* \"#utility.yul\":4653:4657   */\n      0x20\n        /* \"#utility.yul\":4646:4651   */\n      dup7\n        /* \"#utility.yul\":4642:4658   */\n      add\n        /* \"#utility.yul\":4620:4672   */\n      tag_121\n      jump\t// in\n    tag_211:\n        /* \"#utility.yul\":4697:4726   */\n      tag_212\n        /* \"#utility.yul\":4719:4725   */\n      dup2\n        /* \"#utility.yul\":4697:4726   */\n      tag_122\n      jump\t// in\n    tag_212:\n        /* \"#utility.yul\":4692:4695   */\n      dup5\n        /* \"#utility.yul\":4688:4727   */\n      add\n        /* \"#utility.yul\":4681:4727   */\n      swap2\n      pop\n        /* \"#utility.yul\":4461:4733   */\n      pop\n        /* \"#utility.yul\":4369:4733   */\n      swap3\n      swap2\n      pop\n      pop\n      jump\t// out\n        /* \"#utility.yul\":4739:4843   */\n    tag_124:\n        /* \"#utility.yul\":4784:4791   */\n      0x00\n        /* \"#utility.yul\":4813:4837   */\n      tag_214\n        /* \"#utility.yul\":4831:4836   */\n      dup3\n        /* \"#utility.yul\":4813:4837   */\n      tag_111\n      jump\t// in\n    tag_214:\n        /* \"#utility.yul\":4802:4837   */\n      swap1\n      pop\n        /* \"#utility.yul\":4739:4843   */\n      swap2\n      swap1\n      pop\n      jump\t// out\n        /* \"#utility.yul\":4849:4991   */\n    tag_125:\n        /* \"#utility.yul\":4952:4984   */\n      tag_216\n        /* \"#utility.yul\":4978:4983   */\n      dup2\n        /* \"#utility.yul\":4952:4984   */\n      tag_124\n      jump\t// in\n    tag_216:\n        /* \"#utility.yul\":4947:4950   */\n      dup3\n        /* \"#utility.yul\":4940:4985   */\n      mstore\n        /* \"#utility.yul\":4849:4991   */\n      pop\n      pop\n      jump\t// out\n        /* \"#utility.yul\":4997:5772   */\n    tag_47:\n        /* \"#utility.yul\":5232:5236   */\n      0x00\n        /* \"#utility.yul\":5270:5273   */\n      0xa0\n        /* \"#utility.yul\":5259:5268   */\n      dup3\n        /* \"#utility.yul\":5255:5274   */\n      add\n        /* \"#utility.yul\":5247:5274   */\n      swap1\n      pop\n        /* \"#utility.yul\":5320:5329   */\n      dup2\n        /* \"#utility.yul\":5314:5318   */\n      dup2\n        /* \"#utility.yul\":5310:5330   */\n      sub\n        /* \"#utility.yul\":5306:5307   */\n      0x00\n        /* \"#utility.yul\":5295:5304   */\n      dup4\n        /* \"#utility.yul\":5291:5308   */\n      add\n        /* \"#utility.yul\":5284:5331   */\n      mstore\n        /* \"#utility.yul\":5348:5426   */\n      tag_218\n        /* \"#utility.yul\":5421:5425   */\n      dup2\n        /* \"#utility.yul\":5412:5418   */\n      dup9\n        /* \"#utility.yul\":5348:5426   */\n      tag_123\n      jump\t// in\n    tag_218:\n        /* \"#utility.yul\":5340:5426   */\n      swap1\n      pop\n        /* \"#utility.yul\":5436:5508   */\n      tag_219\n        /* \"#utility.yul\":5504:5506   */\n      0x20\n        /* \"#utility.yul\":5493:5502   */\n      dup4\n        /* \"#utility.yul\":5489:5507   */\n      add\n        /* \"#utility.yul\":5480:5486   */\n      dup8\n        /* \"#utility.yul\":5436:5508   */\n      tag_117\n      jump\t// in\n    tag_219:\n        /* \"#utility.yul\":5518:5606   */\n      tag_220\n        /* \"#utility.yul\":5602:5604   */\n      0x40\n        /* \"#utility.yul\":5591:5600   */\n      dup4\n        /* \"#utility.yul\":5587:5605   */\n      add\n        /* \"#utility.yul\":5578:5584   */\n      dup7\n        /* \"#utility.yul\":5518:5606   */\n      tag_125\n      jump\t// in\n    tag_220:\n        /* \"#utility.yul\":5616:5682   */\n      tag_221\n        /* \"#utility.yul\":5678:5680   */\n      0x60\n        /* \"#utility.yul\":5667:5676   */\n      dup4\n        /* \"#utility.yul\":5663:5681   */\n      add\n        /* \"#utility.yul\":5654:5660   */\n      dup6\n        /* \"#utility.yul\":5616:5682   */\n      tag_116\n      jump\t// in\n    tag_221:\n        /* \"#utility.yul\":5692:5765   */\n      tag_222\n        /* \"#utility.yul\":5760:5763   */\n      0x80\n        /* \"#utility.yul\":5749:5758   */\n      dup4\n        /* \"#utility.yul\":5745:5764   */\n      add\n        /* \"#utility.yul\":5736:5742   */\n      dup5\n        /* \"#utility.yul\":5692:5765   */\n      tag_117\n      jump\t// in\n    tag_222:\n        /* \"#utility.yul\":4997:5772   */\n      swap7\n      swap6\n      pop\n      pop\n      pop\n      pop\n      pop\n      pop\n      jump\t// out\n        /* \"#utility.yul\":5778:5895   */\n    tag_126:\n        /* \"#utility.yul\":5887:5888   */\n      0x00\n        /* \"#utility.yul\":5884:5885   */\n      dup1\n        /* \"#utility.yul\":5877:5889   */\n      revert\n        /* \"#utility.yul\":5901:6018   */\n    tag_127:\n        /* \"#utility.yul\":6010:6011   */\n      0x00\n        /* \"#utility.yul\":6007:6008   */\n      dup1\n        /* \"#utility.yul\":6000:6012   */\n      revert\n        /* \"#utility.yul\":6024:6204   */\n    tag_128:\n        /* \"#utility.yul\":6072:6149   */\n      0x4e487b7100000000000000000000000000000000000000000000000000000000\n        /* \"#utility.yul\":6069:6070   */\n      0x00\n        /* \"#utility.yul\":6062:6150   */\n      mstore\n        /* \"#utility.yul\":6169:6173   */\n      0x41\n        /* \"#utility.yul\":6166:6167   */\n      0x04\n        /* \"#utility.yul\":6159:6174   */\n      mstore\n        /* \"#utility.yul\":6193:6197   */\n      0x24\n        /* \"#utility.yul\":6190:6191   */\n      0x00\n        /* \"#utility.yul\":6183:6198   */\n      revert\n        /* \"#utility.yul\":6210:6491   */\n    tag_129:\n        /* \"#utility.yul\":6293:6320   */\n      tag_227\n        /* \"#utility.yul\":6315:6319   */\n      dup3\n        /* \"#utility.yul\":6293:6320   */\n      tag_122\n      jump\t// in\n    tag_227:\n        /* \"#utility.yul\":6285:6291   */\n      dup2\n        /* \"#utility.yul\":6281:6321   */\n      add\n        /* \"#utility.yul\":6423:6429   */\n      dup2\n        /* \"#utility.yul\":6411:6421   */\n      dup2\n        /* \"#utility.yul\":6408:6430   */\n      lt\n        /* \"#utility.yul\":6387:6405   */\n      0xffffffffffffffff\n        /* \"#utility.yul\":6375:6385   */\n      dup3\n        /* \"#utility.yul\":6372:6406   */\n      gt\n        /* \"#utility.yul\":6369:6431   */\n      or\n        /* \"#utility.yul\":6366:6454   */\n      iszero\n      tag_228\n      jumpi\n        /* \"#utility.yul\":6434:6452   */\n      tag_229\n      tag_128\n      jump\t// in\n    tag_229:\n        /* \"#utility.yul\":6366:6454   */\n    tag_228:\n        /* \"#utility.yul\":6474:6484   */\n      dup1\n        /* \"#utility.yul\":6470:6472   */\n      0x40\n        /* \"#utility.yul\":6463:6485   */\n      mstore\n        /* \"#utility.yul\":6253:6491   */\n      pop\n        /* \"#utility.yul\":6210:6491   */\n      pop\n      pop\n      jump\t// out\n        /* \"#utility.yul\":6497:6626   */\n    tag_130:\n        /* \"#utility.yul\":6531:6537   */\n      0x00\n        /* \"#utility.yul\":6558:6578   */\n      tag_231\n      tag_105\n      jump\t// in\n    tag_231:\n        /* \"#utility.yul\":6548:6578   */\n      swap1\n      pop\n        /* \"#utility.yul\":6587:6620   */\n      tag_232\n        /* \"#utility.yul\":6615:6619   */\n      dup3\n        /* \"#utility.yul\":6607:6613   */\n      dup3\n        /* \"#utility.yul\":6587:6620   */\n      tag_129\n      jump\t// in\n    tag_232:\n        /* \"#utility.yul\":6497:6626   */\n      swap2\n      swap1\n      pop\n      jump\t// out\n        /* \"#utility.yul\":6632:6940   */\n    tag_131:\n        /* \"#utility.yul\":6694:6698   */\n      0x00\n        /* \"#utility.yul\":6784:6802   */\n      0xffffffffffffffff\n        /* \"#utility.yul\":6776:6782   */\n      dup3\n        /* \"#utility.yul\":6773:6803   */\n      gt\n        /* \"#utility.yul\":6770:6826   */\n      iszero\n      tag_234\n      jumpi\n        /* \"#utility.yul\":6806:6824   */\n      tag_235\n      tag_128\n      jump\t// in\n    tag_235:\n        /* \"#utility.yul\":6770:6826   */\n    tag_234:\n        /* \"#utility.yul\":6844:6873   */\n      tag_236\n        /* \"#utility.yul\":6866:6872   */\n      dup3\n        /* \"#utility.yul\":6844:6873   */\n      tag_122\n      jump\t// in\n    tag_236:\n        /* \"#utility.yul\":6836:6873   */\n      swap1\n      pop\n        /* \"#utility.yul\":6928:6932   */\n      0x20\n        /* \"#utility.yul\":6922:6926   */\n      dup2\n        /* \"#utility.yul\":6918:6933   */\n      add\n        /* \"#utility.yul\":6910:6933   */\n      swap1\n      pop\n        /* \"#utility.yul\":6632:6940   */\n      swap2\n      swap1\n      pop\n      jump\t// out\n        /* \"#utility.yul\":6946:7100   */\n    tag_132:\n        /* \"#utility.yul\":7030:7036   */\n      dup3\n        /* \"#utility.yul\":7025:7028   */\n      dup2\n        /* \"#utility.yul\":7020:7023   */\n      dup4\n        /* \"#utility.yul\":7007:7037   */\n      calldatacopy\n        /* \"#utility.yul\":7092:7093   */\n      0x00\n        /* \"#utility.yul\":7083:7089   */\n      dup4\n        /* \"#utility.yul\":7078:7081   */\n      dup4\n        /* \"#utility.yul\":7074:7090   */\n      add\n        /* \"#utility.yul\":7067:7094   */\n      mstore\n        /* \"#utility.yul\":6946:7100   */\n      pop\n      pop\n      pop\n      jump\t// out\n        /* \"#utility.yul\":7106:7518   */\n    tag_133:\n        /* \"#utility.yul\":7184:7189   */\n      0x00\n        /* \"#utility.yul\":7209:7275   */\n      tag_239\n        /* \"#utility.yul\":7225:7274   */\n      tag_240\n        /* \"#utility.yul\":7267:7273   */\n      dup5\n        /* \"#utility.yul\":7225:7274   */\n      tag_131\n      jump\t// in\n    tag_240:\n        /* \"#utility.yul\":7209:7275   */\n      tag_130\n      jump\t// in\n    tag_239:\n        /* \"#utility.yul\":7200:7275   */\n      swap1\n      pop\n        /* \"#utility.yul\":7298:7304   */\n      dup3\n        /* \"#utility.yul\":7291:7296   */\n      dup2\n        /* \"#utility.yul\":7284:7305   */\n      mstore\n        /* \"#utility.yul\":7336:7340   */\n      0x20\n        /* \"#utility.yul\":7329:7334   */\n      dup2\n        /* \"#utility.yul\":7325:7341   */\n      add\n        /* \"#utility.yul\":7374:7377   */\n      dup5\n        /* \"#utility.yul\":7365:7371   */\n      dup5\n        /* \"#utility.yul\":7360:7363   */\n      dup5\n        /* \"#utility.yul\":7356:7372   */\n      add\n        /* \"#utility.yul\":7353:7378   */\n      gt\n        /* \"#utility.yul\":7350:7462   */\n      iszero\n      tag_241\n      jumpi\n        /* \"#utility.yul\":7381:7460   */\n      tag_242\n      tag_127\n      jump\t// in\n    tag_242:\n        /* \"#utility.yul\":7350:7462   */\n    tag_241:\n        /* \"#utility.yul\":7471:7512   */\n      tag_243\n        /* \"#utility.yul\":7505:7511   */\n      dup5\n        /* \"#utility.yul\":7500:7503   */\n      dup3\n        /* \"#utility.yul\":7495:7498   */\n      dup6\n        /* \"#utility.yul\":7471:7512   */\n      tag_132\n      jump\t// in\n    tag_243:\n        /* \"#utility.yul\":7190:7518   */\n      pop\n        /* \"#utility.yul\":7106:7518   */\n      swap4\n      swap3\n      pop\n      pop\n      pop\n      jump\t// out\n        /* \"#utility.yul\":7538:7878   */\n    tag_134:\n        /* \"#utility.yul\":7594:7599   */\n      0x00\n        /* \"#utility.yul\":7643:7646   */\n      dup3\n        /* \"#utility.yul\":7636:7640   */\n      0x1f\n        /* \"#utility.yul\":7628:7634   */\n      dup4\n        /* \"#utility.yul\":7624:7641   */\n      add\n        /* \"#utility.yul\":7620:7647   */\n      slt\n        /* \"#utility.yul\":7610:7732   */\n      tag_245\n      jumpi\n        /* \"#utility.yul\":7651:7730   */\n      tag_246\n      tag_126\n      jump\t// in\n    tag_246:\n        /* \"#utility.yul\":7610:7732   */\n    tag_245:\n        /* \"#utility.yul\":7768:7774   */\n      dup2\n        /* \"#utility.yul\":7755:7775   */\n      calldataload\n        /* \"#utility.yul\":7793:7872   */\n      tag_247\n        /* \"#utility.yul\":7868:7871   */\n      dup5\n        /* \"#utility.yul\":7860:7866   */\n      dup3\n        /* \"#utility.yul\":7853:7857   */\n      0x20\n        /* \"#utility.yul\":7845:7851   */\n      dup7\n        /* \"#utility.yul\":7841:7858   */\n      add\n        /* \"#utility.yul\":7793:7872   */\n      tag_133\n      jump\t// in\n    tag_247:\n        /* \"#utility.yul\":7784:7872   */\n      swap2\n      pop\n        /* \"#utility.yul\":7600:7878   */\n      pop\n        /* \"#utility.yul\":7538:7878   */\n      swap3\n      swap2\n      pop\n      pop\n      jump\t// out\n        /* \"#utility.yul\":7884:8022   */\n    tag_135:\n        /* \"#utility.yul\":7965:7997   */\n      tag_249\n        /* \"#utility.yul\":7991:7996   */\n      dup2\n        /* \"#utility.yul\":7965:7997   */\n      tag_124\n      jump\t// in\n    tag_249:\n        /* \"#utility.yul\":7958:7963   */\n      dup2\n        /* \"#utility.yul\":7955:7998   */\n      eq\n        /* \"#utility.yul\":7945:8016   */\n      tag_250\n      jumpi\n        /* \"#utility.yul\":8012:8013   */\n      0x00\n        /* \"#utility.yul\":8009:8010   */\n      dup1\n        /* \"#utility.yul\":8002:8014   */\n      revert\n        /* \"#utility.yul\":7945:8016   */\n    tag_250:\n        /* \"#utility.yul\":7884:8022   */\n      pop\n      jump\t// out\n        /* \"#utility.yul\":8028:8183   */\n    tag_136:\n        /* \"#utility.yul\":8082:8087   */\n      0x00\n        /* \"#utility.yul\":8120:8126   */\n      dup2\n        /* \"#utility.yul\":8107:8127   */\n      calldataload\n        /* \"#utility.yul\":8098:8127   */\n      swap1\n      pop\n        /* \"#utility.yul\":8136:8177   */\n      tag_252\n        /* \"#utility.yul\":8171:8176   */\n      dup2\n        /* \"#utility.yul\":8136:8177   */\n      tag_135\n      jump\t// in\n    tag_252:\n        /* \"#utility.yul\":8028:8183   */\n      swap3\n      swap2\n      pop\n      pop\n      jump\t// out\n        /* \"#utility.yul\":8189:9004   */\n    tag_55:\n        /* \"#utility.yul\":8284:8290   */\n      0x00\n        /* \"#utility.yul\":8292:8298   */\n      dup1\n        /* \"#utility.yul\":8300:8306   */\n      0x00\n        /* \"#utility.yul\":8349:8351   */\n      0x60\n        /* \"#utility.yul\":8337:8346   */\n      dup5\n        /* \"#utility.yul\":8328:8335   */\n      dup7\n        /* \"#utility.yul\":8324:8347   */\n      sub\n        /* \"#utility.yul\":8320:8352   */\n      slt\n        /* \"#utility.yul\":8317:8436   */\n      iszero\n      tag_254\n      jumpi\n        /* \"#utility.yul\":8355:8434   */\n      tag_255\n      tag_106\n      jump\t// in\n    tag_255:\n        /* \"#utility.yul\":8317:8436   */\n    tag_254:\n        /* \"#utility.yul\":8503:8504   */\n      0x00\n        /* \"#utility.yul\":8492:8501   */\n      dup5\n        /* \"#utility.yul\":8488:8505   */\n      add\n        /* \"#utility.yul\":8475:8506   */\n      calldataload\n        /* \"#utility.yul\":8533:8551   */\n      0xffffffffffffffff\n        /* \"#utility.yul\":8525:8531   */\n      dup2\n        /* \"#utility.yul\":8522:8552   */\n      gt\n        /* \"#utility.yul\":8519:8636   */\n      iszero\n      tag_256\n      jumpi\n        /* \"#utility.yul\":8555:8634   */\n      tag_257\n      tag_107\n      jump\t// in\n    tag_257:\n        /* \"#utility.yul\":8519:8636   */\n    tag_256:\n        /* \"#utility.yul\":8660:8723   */\n      tag_258\n        /* \"#utility.yul\":8715:8722   */\n      dup7\n        /* \"#utility.yul\":8706:8712   */\n      dup3\n        /* \"#utility.yul\":8695:8704   */\n      dup8\n        /* \"#utility.yul\":8691:8713   */\n      add\n        /* \"#utility.yul\":8660:8723   */\n      tag_134\n      jump\t// in\n    tag_258:\n        /* \"#utility.yul\":8650:8723   */\n      swap4\n      pop\n        /* \"#utility.yul\":8446:8733   */\n      pop\n        /* \"#utility.yul\":8772:8774   */\n      0x20\n        /* \"#utility.yul\":8798:8851   */\n      tag_259\n        /* \"#utility.yul\":8843:8850   */\n      dup7\n        /* \"#utility.yul\":8834:8840   */\n      dup3\n        /* \"#utility.yul\":8823:8832   */\n      dup8\n        /* \"#utility.yul\":8819:8841   */\n      add\n        /* \"#utility.yul\":8798:8851   */\n      tag_110\n      jump\t// in\n    tag_259:\n        /* \"#utility.yul\":8788:8851   */\n      swap3\n      pop\n        /* \"#utility.yul\":8743:8861   */\n      pop\n        /* \"#utility.yul\":8900:8902   */\n      0x40\n        /* \"#utility.yul\":8926:8987   */\n      tag_260\n        /* \"#utility.yul\":8979:8986   */\n      dup7\n        /* \"#utility.yul\":8970:8976   */\n      dup3\n        /* \"#utility.yul\":8959:8968   */\n      dup8\n        /* \"#utility.yul\":8955:8977   */\n      add\n        /* \"#utility.yul\":8926:8987   */\n      tag_136\n      jump\t// in\n    tag_260:\n        /* \"#utility.yul\":8916:8987   */\n      swap2\n      pop\n        /* \"#utility.yul\":8871:8997   */\n      pop\n        /* \"#utility.yul\":8189:9004   */\n      swap3\n      pop\n      swap3\n      pop\n      swap3\n      jump\t// out\n        /* \"#utility.yul\":9010:9190   */\n    tag_74:\n        /* \"#utility.yul\":9058:9135   */\n      0x4e487b7100000000000000000000000000000000000000000000000000000000\n        /* \"#utility.yul\":9055:9056   */\n      0x00\n        /* \"#utility.yul\":9048:9136   */\n      mstore\n        /* \"#utility.yul\":9155:9159   */\n      0x01\n        /* \"#utility.yul\":9152:9153   */\n      0x04\n        /* \"#utility.yul\":9145:9160   */\n      mstore\n        /* \"#utility.yul\":9179:9183   */\n      0x24\n        /* \"#utility.yul\":9176:9177   */\n      0x00\n        /* \"#utility.yul\":9169:9184   */\n      revert\n        /* \"#utility.yul\":9196:9376   */\n    tag_137:\n        /* \"#utility.yul\":9244:9321   */\n      0x4e487b7100000000000000000000000000000000000000000000000000000000\n        /* \"#utility.yul\":9241:9242   */\n      0x00\n        /* \"#utility.yul\":9234:9322   */\n      mstore\n        /* \"#utility.yul\":9341:9345   */\n      0x12\n        /* \"#utility.yul\":9338:9339   */\n      0x04\n        /* \"#utility.yul\":9331:9346   */\n      mstore\n        /* \"#utility.yul\":9365:9369   */\n      0x24\n        /* \"#utility.yul\":9362:9363   */\n      0x00\n        /* \"#utility.yul\":9355:9370   */\n      revert\n        /* \"#utility.yul\":9382:9562   */\n    tag_138:\n        /* \"#utility.yul\":9430:9507   */\n      0x4e487b7100000000000000000000000000000000000000000000000000000000\n        /* \"#utility.yul\":9427:9428   */\n      0x00\n        /* \"#utility.yul\":9420:9508   */\n      mstore\n        /* \"#utility.yul\":9527:9531   */\n      0x11\n        /* \"#utility.yul\":9524:9525   */\n      0x04\n        /* \"#utility.yul\":9517:9532   */\n      mstore\n        /* \"#utility.yul\":9551:9555   */\n      0x24\n        /* \"#utility.yul\":9548:9549   */\n      0x00\n        /* \"#utility.yul\":9541:9556   */\n      revert\n        /* \"#utility.yul\":9568:9753   */\n    tag_78:\n        /* \"#utility.yul\":9608:9609   */\n      0x00\n        /* \"#utility.yul\":9625:9645   */\n      tag_265\n        /* \"#utility.yul\":9643:9644   */\n      dup3\n        /* \"#utility.yul\":9625:9645   */\n      tag_108\n      jump\t// in\n    tag_265:\n        /* \"#utility.yul\":9620:9645   */\n      swap2\n      pop\n        /* \"#utility.yul\":9659:9679   */\n      tag_266\n        /* \"#utility.yul\":9677:9678   */\n      dup4\n        /* \"#utility.yul\":9659:9679   */\n      tag_108\n      jump\t// in\n    tag_266:\n        /* \"#utility.yul\":9654:9679   */\n      swap3\n      pop\n        /* \"#utility.yul\":9698:9699   */\n      dup3\n        /* \"#utility.yul\":9688:9723   */\n      tag_267\n      jumpi\n        /* \"#utility.yul\":9703:9721   */\n      tag_268\n      tag_137\n      jump\t// in\n    tag_268:\n        /* \"#utility.yul\":9688:9723   */\n    tag_267:\n        /* \"#utility.yul\":9745:9746   */\n      dup3\n        /* \"#utility.yul\":9742:9743   */\n      dup3\n        /* \"#utility.yul\":9738:9747   */\n      div\n        /* \"#utility.yul\":9733:9747   */\n      swap1\n      pop\n        /* \"#utility.yul\":9568:9753   */\n      swap3\n      swap2\n      pop\n      pop\n      jump\t// out\n        /* \"#utility.yul\":9759:9939   */\n    tag_139:\n        /* \"#utility.yul\":9807:9884   */\n      0x4e487b7100000000000000000000000000000000000000000000000000000000\n        /* \"#utility.yul\":9804:9805   */\n      0x00\n        /* \"#utility.yul\":9797:9885   */\n      mstore\n        /* \"#utility.yul\":9904:9908   */\n      0x22\n        /* \"#utility.yul\":9901:9902   */\n      0x04\n        /* \"#utility.yul\":9894:9909   */\n      mstore\n        /* \"#utility.yul\":9928:9932   */\n      0x24\n        /* \"#utility.yul\":9925:9926   */\n      0x00\n        /* \"#utility.yul\":9918:9933   */\n      revert\n        /* \"#utility.yul\":9945:10265   */\n    tag_85:\n        /* \"#utility.yul\":9989:9995   */\n      0x00\n        /* \"#utility.yul\":10026:10027   */\n      0x02\n        /* \"#utility.yul\":10020:10024   */\n      dup3\n        /* \"#utility.yul\":10016:10028   */\n      div\n        /* \"#utility.yul\":10006:10028   */\n      swap1\n      pop\n        /* \"#utility.yul\":10073:10074   */\n      0x01\n        /* \"#utility.yul\":10067:10071   */\n      dup3\n        /* \"#utility.yul\":10063:10075   */\n      and\n        /* \"#utility.yul\":10094:10112   */\n      dup1\n        /* \"#utility.yul\":10084:10165   */\n      tag_271\n      jumpi\n        /* \"#utility.yul\":10150:10154   */\n      0x7f\n        /* \"#utility.yul\":10142:10148   */\n      dup3\n        /* \"#utility.yul\":10138:10155   */\n      and\n        /* \"#utility.yul\":10128:10155   */\n      swap2\n      pop\n        /* \"#utility.yul\":10084:10165   */\n    tag_271:\n        /* \"#utility.yul\":10212:10214   */\n      0x20\n        /* \"#utility.yul\":10204:10210   */\n      dup3\n        /* \"#utility.yul\":10201:10215   */\n      lt\n        /* \"#utility.yul\":10181:10199   */\n      dup2\n        /* \"#utility.yul\":10178:10216   */\n      sub\n        /* \"#utility.yul\":10175:10259   */\n      tag_272\n      jumpi\n        /* \"#utility.yul\":10231:10249   */\n      tag_273\n      tag_139\n      jump\t// in\n    tag_273:\n        /* \"#utility.yul\":10175:10259   */\n    tag_272:\n        /* \"#utility.yul\":9996:10265   */\n      pop\n        /* \"#utility.yul\":9945:10265   */\n      swap2\n      swap1\n      pop\n      jump\t// out\n        /* \"#utility.yul\":10271:10504   */\n    tag_95:\n        /* \"#utility.yul\":10310:10313   */\n      0x00\n        /* \"#utility.yul\":10333:10357   */\n      tag_275\n        /* \"#utility.yul\":10351:10356   */\n      dup3\n        /* \"#utility.yul\":10333:10357   */\n      tag_108\n      jump\t// in\n    tag_275:\n        /* \"#utility.yul\":10324:10357   */\n      swap2\n      pop\n        /* \"#utility.yul\":10379:10445   */\n      0xffffffffffffffffffffffffffffffffffffffffffffffffffffffffffffffff\n        /* \"#utility.yul\":10372:10377   */\n      dup3\n        /* \"#utility.yul\":10369:10446   */\n      sub\n        /* \"#utility.yul\":10366:10469   */\n      tag_276\n      jumpi\n        /* \"#utility.yul\":10449:10467   */\n      tag_277\n      tag_138\n      jump\t// in\n    tag_277:\n        /* \"#utility.yul\":10366:10469   */\n    tag_276:\n        /* \"#utility.yul\":10496:10497   */\n      0x01\n        /* \"#utility.yul\":10489:10494   */\n      dup3\n        /* \"#utility.yul\":10485:10498   */\n      add\n        /* \"#utility.yul\":10478:10498   */\n      swap1\n      pop\n        /* \"#utility.yul\":10271:10504   */\n      swap2\n      swap1\n      pop\n      jump\t// out\n        /* \"#utility.yul\":10510:10651   */\n    tag_140:\n        /* \"#utility.yul\":10559:10563   */\n      0x00\n        /* \"#utility.yul\":10582:10585   */\n      dup2\n        /* \"#utility.yul\":10574:10585   */\n      swap1\n      pop\n        /* \"#utility.yul\":10605:10608   */\n      dup2\n        /* \"#utility.yul\":10602:10603   */\n      0x00\n        /* \"#utility.yul\":10595:10609   */\n      mstore\n        /* \"#utility.yul\":10639:10643   */\n      0x20\n        /* \"#utility.yul\":10636:10637   */\n      0x00\n        /* \"#utility.yul\":10626:10644   */\n      keccak256\n        /* \"#utility.yul\":10618:10644   */\n      swap1\n      pop\n        /* \"#utility.yul\":10510:10651   */\n      swap2\n      swap1\n      pop\n      jump\t// out\n        /* \"#utility.yul\":10657:10750   */\n    tag_141:\n        /* \"#utility.yul\":10694:10700   */\n      0x00\n        /* \"#utility.yul\":10741:10743   */\n      0x20\n        /* \"#utility.yul\":10736:10738   */\n      0x1f\n        /* \"#utility.yul\":10729:10734   */\n      dup4\n        /* \"#utility.yul\":10725:10739   */\n      add\n        /* \"#utility.yul\":10721:10744   */\n      div\n        /* \"#utility.yul\":10711:10744   */\n      swap1\n      pop\n        /* \"#utility.yul\":10657:10750   */\n      swap2\n      swap1\n      pop\n      jump\t// out\n        /* \"#utility.yul\":10756:10863   */\n    tag_142:\n        /* \"#utility.yul\":10800:10808   */\n      0x00\n        /* \"#utility.yul\":10850:10855   */\n      dup3\n        /* \"#utility.yul\":10844:10848   */\n      dup3\n        /* \"#utility.yul\":10840:10856   */\n      shl\n        /* \"#utility.yul\":10819:10856   */\n      swap1\n      pop\n        /* \"#utility.yul\":10756:10863   */\n      swap3\n      swap2\n      pop\n      pop\n      jump\t// out\n        /* \"#utility.yul\":10869:11262   */\n    tag_143:\n        /* \"#utility.yul\":10938:10944   */\n      0x00\n        /* \"#utility.yul\":10988:10989   */\n      0x08\n        /* \"#utility.yul\":10976:10986   */\n      dup4\n        /* \"#utility.yul\":10972:10990   */\n      mul\n        /* \"#utility.yul\":11011:11108   */\n      tag_282\n        /* \"#utility.yul\":11041:11107   */\n      0xffffffffffffffffffffffffffffffffffffffffffffffffffffffffffffffff\n        /* \"#utility.yul\":11030:11039   */\n      dup3\n        /* \"#utility.yul\":11011:11108   */\n      tag_142\n      jump\t// in\n    tag_282:\n        /* \"#utility.yul\":11129:11168   */\n      tag_283\n        /* \"#utility.yul\":11159:11167   */\n      dup7\n        /* \"#utility.yul\":11148:11157   */\n      dup4\n        /* \"#utility.yul\":11129:11168   */\n      tag_142\n      jump\t// in\n    tag_283:\n        /* \"#utility.yul\":11117:11168   */\n      swap6\n      pop\n        /* \"#utility.yul\":11201:11205   */\n      dup1\n        /* \"#utility.yul\":11197:11206   */\n      not\n        /* \"#utility.yul\":11190:11195   */\n      dup5\n        /* \"#utility.yul\":11186:11207   */\n      and\n        /* \"#utility.yul\":11177:11207   */\n      swap4\n      pop\n        /* \"#utility.yul\":11250:11254   */\n      dup1\n        /* \"#utility.yul\":11240:11248   */\n      dup7\n        /* \"#utility.yul\":11236:11255   */\n      and\n        /* \"#utility.yul\":11229:11234   */\n      dup5\n        /* \"#utility.yul\":11226:11256   */\n      or\n        /* \"#utility.yul\":11216:11256   */\n      swap3\n      pop\n        /* \"#utility.yul\":10945:11262   */\n      pop\n      pop\n        /* \"#utility.yul\":10869:11262   */\n      swap4\n      swap3\n      pop\n      pop\n      pop\n      jump\t// out\n        /* \"#utility.yul\":11268:11328   */\n    tag_144:\n        /* \"#utility.yul\":11296:11299   */\n      0x00\n        /* \"#utility.yul\":11317:11322   */\n      dup2\n        /* \"#utility.yul\":11310:11322   */\n      swap1\n      pop\n        /* \"#utility.yul\":11268:11328   */\n      swap2\n      swap1\n      pop\n      jump\t// out\n        /* \"#utility.yul\":11334:11476   */\n    tag_145:\n        /* \"#utility.yul\":11384:11393   */\n      0x00\n        /* \"#utility.yul\":11417:11470   */\n      tag_286\n        /* \"#utility.yul\":11435:11469   */\n      tag_287\n        /* \"#utility.yul\":11444:11468   */\n      tag_288\n        /* \"#utility.yul\":11462:11467   */\n      dup5\n        /* \"#utility.yul\":11444:11468   */\n      tag_108\n      jump\t// in\n    tag_288:\n        /* \"#utility.yul\":11435:11469   */\n      tag_144\n      jump\t// in\n    tag_287:\n        /* \"#utility.yul\":11417:11470   */\n      tag_108\n      jump\t// in\n    tag_286:\n        /* \"#utility.yul\":11404:11470   */\n      swap1\n      pop\n        /* \"#utility.yul\":11334:11476   */\n      swap2\n      swap1\n      pop\n      jump\t// out\n        /* \"#utility.yul\":11482:11557   */\n    tag_146:\n        /* \"#utility.yul\":11525:11528   */\n      0x00\n        /* \"#utility.yul\":11546:11551   */\n      dup2\n        /* \"#utility.yul\":11539:11551   */\n      swap1\n      pop\n        /* \"#utility.yul\":11482:11557   */\n      swap2\n      swap1\n      pop\n      jump\t// out\n        /* \"#utility.yul\":11563:11832   */\n    tag_147:\n        /* \"#utility.yul\":11673:11712   */\n      tag_291\n        /* \"#utility.yul\":11704:11711   */\n      dup4\n        /* \"#utility.yul\":11673:11712   */\n      tag_145\n      jump\t// in\n    tag_291:\n        /* \"#utility.yul\":11734:11825   */\n      tag_292\n        /* \"#utility.yul\":11783:11824   */\n      tag_293\n        /* \"#utility.yul\":11807:11823   */\n      dup3\n        /* \"#utility.yul\":11783:11824   */\n      tag_146\n      jump\t// in\n    tag_293:\n        /* \"#utility.yul\":11775:11781   */\n      dup5\n        /* \"#utility.yul\":11768:11772   */\n      dup5\n        /* \"#utility.yul\":11762:11773   */\n      sload\n        /* \"#utility.yul\":11734:11825   */\n      tag_143\n      jump\t// in\n    tag_292:\n        /* \"#utility.yul\":11728:11732   */\n      dup3\n        /* \"#utility.yul\":11721:11826   */\n      sstore\n        /* \"#utility.yul\":11639:11832   */\n      pop\n        /* \"#utility.yul\":11563:11832   */\n      pop\n      pop\n      pop\n      jump\t// out\n        /* \"#utility.yul\":11838:11911   */\n    tag_148:\n        /* \"#utility.yul\":11883:11886   */\n      0x00\n        /* \"#utility.yul\":11838:11911   */\n      swap1\n      jump\t// out\n        /* \"#utility.yul\":11917:12106   */\n    tag_149:\n        /* \"#utility.yul\":11994:12026   */\n      tag_296\n      tag_148\n      jump\t// in\n    tag_296:\n        /* \"#utility.yul\":12035:12100   */\n      tag_297\n        /* \"#utility.yul\":12093:12099   */\n      dup2\n        /* \"#utility.yul\":12085:12091   */\n      dup5\n        /* \"#utility.yul\":12079:12083   */\n      dup5\n        /* \"#utility.yul\":12035:12100   */\n      tag_147\n      jump\t// in\n    tag_297:\n        /* \"#utility.yul\":11970:12106   */\n      pop\n        /* \"#utility.yul\":11917:12106   */\n      pop\n      pop\n      jump\t// out\n        /* \"#utility.yul\":12112:12298   */\n    tag_150:\n        /* \"#utility.yul\":12172:12292   */\n    tag_299:\n        /* \"#utility.yul\":12189:12192   */\n      dup2\n        /* \"#utility.yul\":12182:12187   */\n      dup2\n        /* \"#utility.yul\":12179:12193   */\n      lt\n        /* \"#utility.yul\":12172:12292   */\n      iszero\n      tag_301\n      jumpi\n        /* \"#utility.yul\":12243:12282   */\n      tag_302\n        /* \"#utility.yul\":12280:12281   */\n      0x00\n        /* \"#utility.yul\":12273:12278   */\n      dup3\n        /* \"#utility.yul\":12243:12282   */\n      tag_149\n      jump\t// in\n    tag_302:\n        /* \"#utility.yul\":12216:12217   */\n      0x01\n        /* \"#utility.yul\":12209:12214   */\n      dup2\n        /* \"#utility.yul\":12205:12218   */\n      add\n        /* \"#utility.yul\":12196:12218   */\n      swap1\n      pop\n        /* \"#utility.yul\":12172:12292   */\n      jump(tag_299)\n    tag_301:\n        /* \"#utility.yul\":12112:12298   */\n      pop\n      pop\n      jump\t// out\n        /* \"#utility.yul\":12304:12847   */\n    tag_151:\n        /* \"#utility.yul\":12405:12407   */\n      0x1f\n        /* \"#utility.yul\":12400:12403   */\n      dup3\n        /* \"#utility.yul\":12397:12408   */\n      gt\n        /* \"#utility.yul\":12394:12840   */\n      iszero\n      tag_304\n      jumpi\n        /* \"#utility.yul\":12439:12477   */\n      tag_305\n        /* \"#utility.yul\":12471:12476   */\n      dup2\n        /* \"#utility.yul\":12439:12477   */\n      tag_140\n      jump\t// in\n    tag_305:\n        /* \"#utility.yul\":12523:12552   */\n      tag_306\n        /* \"#utility.yul\":12541:12551   */\n      dup5\n        /* \"#utility.yul\":12523:12552   */\n      tag_141\n      jump\t// in\n    tag_306:\n        /* \"#utility.yul\":12513:12521   */\n      dup2\n        /* \"#utility.yul\":12509:12553   */\n      add\n        /* \"#utility.yul\":12706:12708   */\n      0x20\n        /* \"#utility.yul\":12694:12704   */\n      dup6\n        /* \"#utility.yul\":12691:12709   */\n      lt\n        /* \"#utility.yul\":12688:12737   */\n      iszero\n      tag_307\n      jumpi\n        /* \"#utility.yul\":12727:12735   */\n      dup2\n        /* \"#utility.yul\":12712:12735   */\n      swap1\n      pop\n        /* \"#utility.yul\":12688:12737   */\n    tag_307:\n        /* \"#utility.yul\":12750:12830   */\n      tag_308\n        /* \"#utility.yul\":12806:12828   */\n      tag_309\n        /* \"#utility.yul\":12824:12827   */\n      dup6\n        /* \"#utility.yul\":12806:12828   */\n      tag_141\n      jump\t// in\n    tag_309:\n        /* \"#utility.yul\":12796:12804   */\n      dup4\n        /* \"#utility.yul\":12792:12829   */\n      add\n        /* \"#utility.yul\":12779:12790   */\n      dup3\n        /* \"#utility.yul\":12750:12830   */\n      tag_150\n      jump\t// in\n    tag_308:\n        /* \"#utility.yul\":12409:12840   */\n      pop\n      pop\n        /* \"#utility.yul\":12394:12840   */\n    tag_304:\n        /* \"#utility.yul\":12304:12847   */\n      pop\n      pop\n      pop\n      jump\t// out\n        /* \"#utility.yul\":12853:12970   */\n    tag_152:\n        /* \"#utility.yul\":12907:12915   */\n      0x00\n        /* \"#utility.yul\":12957:12962   */\n      dup3\n        /* \"#utility.yul\":12951:12955   */\n      dup3\n        /* \"#utility.yul\":12947:12963   */\n      shr\n        /* \"#utility.yul\":12926:12963   */\n      swap1\n      pop\n        /* \"#utility.yul\":12853:12970   */\n      swap3\n      swap2\n      pop\n      pop\n      jump\t// out\n        /* \"#utility.yul\":12976:13145   */\n    tag_153:\n        /* \"#utility.yul\":13020:13026   */\n      0x00\n        /* \"#utility.yul\":13053:13104   */\n      tag_312\n        /* \"#utility.yul\":13101:13102   */\n      0x00\n        /* \"#utility.yul\":13097:13103   */\n      not\n        /* \"#utility.yul\":13089:13094   */\n      dup5\n        /* \"#utility.yul\":13086:13087   */\n      0x08\n        /* \"#utility.yul\":13082:13095   */\n      mul\n        /* \"#utility.yul\":13053:13104   */\n      tag_152\n      jump\t// in\n    tag_312:\n        /* \"#utility.yul\":13049:13105   */\n      not\n        /* \"#utility.yul\":13134:13138   */\n      dup1\n        /* \"#utility.yul\":13128:13132   */\n      dup4\n        /* \"#utility.yul\":13124:13139   */\n      and\n        /* \"#utility.yul\":13114:13139   */\n      swap2\n      pop\n        /* \"#utility.yul\":13027:13145   */\n      pop\n        /* \"#utility.yul\":12976:13145   */\n      swap3\n      swap2\n      pop\n      pop\n      jump\t// out\n        /* \"#utility.yul\":13150:13445   */\n    tag_154:\n        /* \"#utility.yul\":13226:13230   */\n      0x00\n        /* \"#utility.yul\":13372:13401   */\n      tag_314\n        /* \"#utility.yul\":13397:13400   */\n      dup4\n        /* \"#utility.yul\":13391:13395   */\n      dup4\n        /* \"#utility.yul\":13372:13401   */\n      tag_153\n      jump\t// in\n    tag_314:\n        /* \"#utility.yul\":13364:13401   */\n      swap2\n      pop\n        /* \"#utility.yul\":13434:13437   */\n      dup3\n        /* \"#utility.yul\":13431:13432   */\n      0x02\n        /* \"#utility.yul\":13427:13438   */\n      mul\n        /* \"#utility.yul\":13421:13425   */\n      dup3\n        /* \"#utility.yul\":13418:13439   */\n      or\n        /* \"#utility.yul\":13410:13439   */\n      swap1\n      pop\n        /* \"#utility.yul\":13150:13445   */\n      swap3\n      swap2\n      pop\n      pop\n      jump\t// out\n        /* \"#utility.yul\":13450:14845   */\n    tag_97:\n        /* \"#utility.yul\":13567:13604   */\n      tag_316\n        /* \"#utility.yul\":13600:13603   */\n      dup3\n        /* \"#utility.yul\":13567:13604   */\n      tag_119\n      jump\t// in\n    tag_316:\n        /* \"#utility.yul\":13669:13687   */\n      0xffffffffffffffff\n        /* \"#utility.yul\":13661:13667   */\n      dup2\n        /* \"#utility.yul\":13658:13688   */\n      gt\n        /* \"#utility.yul\":13655:13711   */\n      iszero\n      tag_317\n      jumpi\n        /* \"#utility.yul\":13691:13709   */\n      tag_318\n      tag_128\n      jump\t// in\n    tag_318:\n        /* \"#utility.yul\":13655:13711   */\n    tag_317:\n        /* \"#utility.yul\":13735:13773   */\n      tag_319\n        /* \"#utility.yul\":13767:13771   */\n      dup3\n        /* \"#utility.yul\":13761:13772   */\n      sload\n        /* \"#utility.yul\":13735:13773   */\n      tag_85\n      jump\t// in\n    tag_319:\n        /* \"#utility.yul\":13820:13887   */\n      tag_320\n        /* \"#utility.yul\":13880:13886   */\n      dup3\n        /* \"#utility.yul\":13872:13878   */\n      dup3\n        /* \"#utility.yul\":13866:13870   */\n      dup6\n        /* \"#utility.yul\":13820:13887   */\n      tag_151\n      jump\t// in\n    tag_320:\n        /* \"#utility.yul\":13914:13915   */\n      0x00\n        /* \"#utility.yul\":13938:13942   */\n      0x20\n        /* \"#utility.yul\":13925:13942   */\n      swap1\n      pop\n        /* \"#utility.yul\":13970:13972   */\n      0x1f\n        /* \"#utility.yul\":13962:13968   */\n      dup4\n        /* \"#utility.yul\":13959:13973   */\n      gt\n        /* \"#utility.yul\":13987:13988   */\n      0x01\n        /* \"#utility.yul\":13982:14600   */\n      dup2\n      eq\n      tag_322\n      jumpi\n        /* \"#utility.yul\":14644:14645   */\n      0x00\n        /* \"#utility.yul\":14661:14667   */\n      dup5\n        /* \"#utility.yul\":14658:14735   */\n      iszero\n      tag_323\n      jumpi\n        /* \"#utility.yul\":14710:14719   */\n      dup3\n        /* \"#utility.yul\":14705:14708   */\n      dup8\n        /* \"#utility.yul\":14701:14720   */\n      add\n        /* \"#utility.yul\":14695:14721   */\n      mload\n        /* \"#utility.yul\":14686:14721   */\n      swap1\n      pop\n        /* \"#utility.yul\":14658:14735   */\n    tag_323:\n        /* \"#utility.yul\":14761:14828   */\n      tag_324\n        /* \"#utility.yul\":14821:14827   */\n      dup6\n        /* \"#utility.yul\":14814:14819   */\n      dup3\n        /* \"#utility.yul\":14761:14828   */\n      tag_154\n      jump\t// in\n    tag_324:\n        /* \"#utility.yul\":14755:14759   */\n      dup7\n        /* \"#utility.yul\":14748:14829   */\n      sstore\n        /* \"#utility.yul\":14617:14839   */\n      pop\n        /* \"#utility.yul\":13952:14839   */\n      jump(tag_321)\n        /* \"#utility.yul\":13982:14600   */\n    tag_322:\n        /* \"#utility.yul\":14034:14038   */\n      0x1f\n        /* \"#utility.yul\":14030:14039   */\n      not\n        /* \"#utility.yul\":14022:14028   */\n      dup5\n        /* \"#utility.yul\":14018:14040   */\n      and\n        /* \"#utility.yul\":14068:14105   */\n      tag_325\n        /* \"#utility.yul\":14100:14104   */\n      dup7\n        /* \"#utility.yul\":14068:14105   */\n      tag_140\n      jump\t// in\n    tag_325:\n        /* \"#utility.yul\":14127:14128   */\n      0x00\n        /* \"#utility.yul\":14141:14349   */\n    tag_326:\n        /* \"#utility.yul\":14155:14162   */\n      dup3\n        /* \"#utility.yul\":14152:14153   */\n      dup2\n        /* \"#utility.yul\":14149:14163   */\n      lt\n        /* \"#utility.yul\":14141:14349   */\n      iszero\n      tag_328\n      jumpi\n        /* \"#utility.yul\":14234:14243   */\n      dup5\n        /* \"#utility.yul\":14229:14232   */\n      dup10\n        /* \"#utility.yul\":14225:14244   */\n      add\n        /* \"#utility.yul\":14219:14245   */\n      mload\n        /* \"#utility.yul\":14211:14217   */\n      dup3\n        /* \"#utility.yul\":14204:14246   */\n      sstore\n        /* \"#utility.yul\":14285:14286   */\n      0x01\n        /* \"#utility.yul\":14277:14283   */\n      dup3\n        /* \"#utility.yul\":14273:14287   */\n      add\n        /* \"#utility.yul\":14263:14287   */\n      swap2\n      pop\n        /* \"#utility.yul\":14332:14334   */\n      0x20\n        /* \"#utility.yul\":14321:14330   */\n      dup6\n        /* \"#utility.yul\":14317:14335   */\n      add\n        /* \"#utility.yul\":14304:14335   */\n      swap5\n      pop\n        /* \"#utility.yul\":14178:14182   */\n      0x20\n        /* \"#utility.yul\":14175:14176   */\n      dup2\n        /* \"#utility.yul\":14171:14183   */\n      add\n        /* \"#utility.yul\":14166:14183   */\n      swap1\n      pop\n        /* \"#utility.yul\":14141:14349   */\n      jump(tag_326)\n    tag_328:\n        /* \"#utility.yul\":14377:14383   */\n      dup7\n        /* \"#utility.yul\":14368:14375   */\n      dup4\n        /* \"#utility.yul\":14365:14384   */\n      lt\n        /* \"#utility.yul\":14362:14541   */\n      iszero\n      tag_329\n      jumpi\n        /* \"#utility.yul\":14435:14444   */\n      dup5\n        /* \"#utility.yul\":14430:14433   */\n      dup10\n        /* \"#utility.yul\":14426:14445   */\n      add\n        /* \"#utility.yul\":14420:14446   */\n      mload\n        /* \"#utility.yul\":14478:14526   */\n      tag_330\n        /* \"#utility.yul\":14520:14524   */\n      0x1f\n        /* \"#utility.yul\":14512:14518   */\n      dup10\n        /* \"#utility.yul\":14508:14525   */\n      and\n        /* \"#utility.yul\":14497:14506   */\n      dup3\n        /* \"#utility.yul\":14478:14526   */\n      tag_153\n      jump\t// in\n    tag_330:\n        /* \"#utility.yul\":14470:14476   */\n      dup4\n        /* \"#utility.yul\":14463:14527   */\n      sstore\n        /* \"#utility.yul\":14385:14541   */\n      pop\n        /* \"#utility.yul\":14362:14541   */\n    tag_329:\n        /* \"#utility.yul\":14587:14588   */\n      0x01\n        /* \"#utility.yul\":14583:14584   */\n      0x02\n        /* \"#utility.yul\":14575:14581   */\n      dup9\n        /* \"#utility.yul\":14571:14585   */\n      mul\n        /* \"#utility.yul\":14567:14589   */\n      add\n        /* \"#utility.yul\":14561:14565   */\n      dup9\n        /* \"#utility.yul\":14554:14590   */\n      sstore\n        /* \"#utility.yul\":13989:14600   */\n      pop\n      pop\n      pop\n        /* \"#utility.yul\":13952:14839   */\n    tag_321:\n      pop\n        /* \"#utility.yul\":13542:14845   */\n      pop\n      pop\n      pop\n        /* \"#utility.yul\":13450:14845   */\n      pop\n      pop\n      jump\t// out\n\n    auxdata: 0xa26469706673582212205e601a7c1380ce1599b450196955e2ab24b67e58ada6f1440aeb8c2fe2cf366764736f6c634300080f0033\n}\n","bytecode":{"linkReferences":{},"object":"60806040523480156200001157600080fd5b50604051620012b6380380620012b683398181016040528101906200003791906200012b565b806000806101000a81548173ffffffffffffffffffffffffffffffffffffffff021916908373ffffffffffffffffffffffffffffffffffffffff16021790555081600181905550505062000172565b600080fd5b6000819050919050565b620000a0816200008b565b8114620000ac57600080fd5b50565b600081519050620000c08162000095565b92915050565b600073ffffffffffffffffffffffffffffffffffffffff82169050919050565b6000620000f382620000c6565b9050919050565b6200010581620000e6565b81146200011157600080fd5b50565b6000815190506200012581620000fa565b92915050565b6000806040838503121562000145576200014462000086565b5b60006200015585828601620000af565b9250506020620001688582860162000114565b9150509250929050565b61113480620001826000396000f3fe6080604052600436106100a75760003560e01c806382fde0931161006457806382fde093146101d85780638a9cfd5514610203578063937e09b11461022c5780639fb42b1f14610257578063d7bb99ba14610282578063d7d1bbdb1461028c576100a7565b806303441006146100ac5780630a144391146100d55780633410452a146101125780634051ddac1461013d578063481c6a751461016c57806381d12c5814610197575b600080fd5b3480156100b857600080fd5b506100d360048036038101906100ce91906108a1565b6102b5565b005b3480156100e157600080fd5b506100fc60048036038101906100f7919061092c565b6103f2565b6040516101099190610974565b60405180910390f35b34801561011e57600080fd5b50610127610412565b604051610134919061099e565b60405180910390f35b34801561014957600080fd5b5061015261041c565b6040516101639594939291906109c8565b60405180910390f35b34801561017857600080fd5b50610181610460565b60405161018e9190610a1b565b60405180910390f35b3480156101a357600080fd5b506101be60048036038101906101b991906108a1565b610484565b6040516101cf959493929190610af0565b60405180910390f35b3480156101e457600080fd5b506101ed61056f565b6040516101fa919061099e565b60405180910390f35b34801561020f57600080fd5b5061022a60048036038101906102259190610cab565b610575565b005b34801561023857600080fd5b5061024161068d565b60405161024e919061099e565b60405180910390f35b34801561026357600080fd5b5061026c610693565b604051610279919061099e565b60405180910390f35b61028a610699565b005b34801561029857600080fd5b506102b360048036038101906102ae91906108a1565b610719565b005b60008054906101000a900473ffffffffffffffffffffffffffffffffffffffff1673ffffffffffffffffffffffffffffffffffffffff163373ffffffffffffffffffffffffffffffffffffffff161461031157610310610d1a565b5b60006005600083815260200190815260200160002090508060020160149054906101000a900460ff161561034457600080fd5b60026003546103539190610da7565b81600401541161036257600080fd5b8060020160009054906101000a900473ffffffffffffffffffffffffffffffffffffffff1673ffffffffffffffffffffffffffffffffffffffff166108fc82600101549081150290604051600060405180830381858888f193505050501580156103d0573d6000803e3d6000fd5b5060018160020160146101000a81548160ff0219169083151502179055505050565b60026020528060005260406000206000915054906101000a900460ff1681565b6000600454905090565b60008060008060006001544760045460035460008054906101000a900473ffffffffffffffffffffffffffffffffffffffff16945094509450945094509091929394565b60008054906101000a900473ffffffffffffffffffffffffffffffffffffffff1681565b60056020528060005260406000206000915090508060000180546104a790610e07565b80601f01602080910402602001604051908101604052809291908181526020018280546104d390610e07565b80156105205780601f106104f557610100808354040283529160200191610520565b820191906000526020600020905b81548152906001019060200180831161050357829003601f168201915b5050505050908060010154908060020160009054906101000a900473ffffffffffffffffffffffffffffffffffffffff16908060020160149054906101000a900460ff16908060040154905085565b60035481565b60008054906101000a900473ffffffffffffffffffffffffffffffffffffffff1673ffffffffffffffffffffffffffffffffffffffff163373ffffffffffffffffffffffffffffffffffffffff16146105d1576105d0610d1a565b5b60006005600060045481526020019081526020016000209050600460008154809291906105fd90610e38565b919050555083816000019081610613919061102c565b50828160010181905550818160020160006101000a81548173ffffffffffffffffffffffffffffffffffffffff021916908373ffffffffffffffffffffffffffffffffffffffff16021790555060008160020160146101000a81548160ff0219169083151502179055506000816004018190555050505050565b60015481565b60045481565b60015434116106a757600080fd5b6001600260003373ffffffffffffffffffffffffffffffffffffffff1673ffffffffffffffffffffffffffffffffffffffff16815260200190815260200160002060006101000a81548160ff0219169083151502179055506003600081548092919061071290610e38565b9190505550565b6000600560008381526020019081526020016000209050600260003373ffffffffffffffffffffffffffffffffffffffff1673ffffffffffffffffffffffffffffffffffffffff16815260200190815260200160002060009054906101000a900460ff1661078657600080fd5b8060030160003373ffffffffffffffffffffffffffffffffffffffff1673ffffffffffffffffffffffffffffffffffffffff16815260200190815260200160002060009054906101000a900460ff16156107df57600080fd5b60018160030160003373ffffffffffffffffffffffffffffffffffffffff1673ffffffffffffffffffffffffffffffffffffffff16815260200190815260200160002060006101000a81548160ff02191690831515021790555080600401600081548092919061084e90610e38565b91905055505050565b6000604051905090565b600080fd5b600080fd5b6000819050919050565b61087e8161086b565b811461088957600080fd5b50565b60008135905061089b81610875565b92915050565b6000602082840312156108b7576108b6610861565b5b60006108c58482850161088c565b91505092915050565b600073ffffffffffffffffffffffffffffffffffffffff82169050919050565b60006108f9826108ce565b9050919050565b610909816108ee565b811461091457600080fd5b50565b60008135905061092681610900565b92915050565b60006020828403121561094257610941610861565b5b600061095084828501610917565b91505092915050565b60008115159050919050565b61096e81610959565b82525050565b60006020820190506109896000830184610965565b92915050565b6109988161086b565b82525050565b60006020820190506109b3600083018461098f565b92915050565b6109c2816108ee565b82525050565b600060a0820190506109dd600083018861098f565b6109ea602083018761098f565b6109f7604083018661098f565b610a04606083018561098f565b610a1160808301846109b9565b9695505050505050565b6000602082019050610a3060008301846109b9565b92915050565b600081519050919050565b600082825260208201905092915050565b60005b83811015610a70578082015181840152602081019050610a55565b83811115610a7f576000848401525b50505050565b6000601f19601f8301169050919050565b6000610aa182610a36565b610aab8185610a41565b9350610abb818560208601610a52565b610ac481610a85565b840191505092915050565b6000610ada826108ce565b9050919050565b610aea81610acf565b82525050565b600060a0820190508181036000830152610b0a8188610a96565b9050610b19602083018761098f565b610b266040830186610ae1565b610b336060830185610965565b610b40608083018461098f565b9695505050505050565b600080fd5b600080fd5b7f4e487b7100000000000000000000000000000000000000000000000000000000600052604160045260246000fd5b610b8c82610a85565b810181811067ffffffffffffffff82111715610bab57610baa610b54565b5b80604052505050565b6000610bbe610857565b9050610bca8282610b83565b919050565b600067ffffffffffffffff821115610bea57610be9610b54565b5b610bf382610a85565b9050602081019050919050565b82818337600083830152505050565b6000610c22610c1d84610bcf565b610bb4565b905082815260208101848484011115610c3e57610c3d610b4f565b5b610c49848285610c00565b509392505050565b600082601f830112610c6657610c65610b4a565b5b8135610c76848260208601610c0f565b91505092915050565b610c8881610acf565b8114610c9357600080fd5b50565b600081359050610ca581610c7f565b92915050565b600080600060608486031215610cc457610cc3610861565b5b600084013567ffffffffffffffff811115610ce257610ce1610866565b5b610cee86828701610c51565b9350506020610cff8682870161088c565b9250506040610d1086828701610c96565b9150509250925092565b7f4e487b7100000000000000000000000000000000000000000000000000000000600052600160045260246000fd5b7f4e487b7100000000000000000000000000000000000000000000000000000000600052601260045260246000fd5b7f4e487b7100000000000000000000000000000000000000000000000000000000600052601160045260246000fd5b6000610db28261086b565b9150610dbd8361086b565b925082610dcd57610dcc610d49565b5b828204905092915050565b7f4e487b7100000000000000000000000000000000000000000000000000000000600052602260045260246000fd5b60006002820490506001821680610e1f57607f821691505b602082108103610e3257610e31610dd8565b5b50919050565b6000610e438261086b565b91507fffffffffffffffffffffffffffffffffffffffffffffffffffffffffffffffff8203610e7557610e74610d78565b5b600182019050919050565b60008190508160005260206000209050919050565b60006020601f8301049050919050565b600082821b905092915050565b600060088302610ee27fffffffffffffffffffffffffffffffffffffffffffffffffffffffffffffffff82610ea5565b610eec8683610ea5565b95508019841693508086168417925050509392505050565b6000819050919050565b6000610f29610f24610f1f8461086b565b610f04565b61086b565b9050919050565b6000819050919050565b610f4383610f0e565b610f57610f4f82610f30565b848454610eb2565b825550505050565b600090565b610f6c610f5f565b610f77818484610f3a565b505050565b5b81811015610f9b57610f90600082610f64565b600181019050610f7d565b5050565b601f821115610fe057610fb181610e80565b610fba84610e95565b81016020851015610fc9578190505b610fdd610fd585610e95565b830182610f7c565b50505b505050565b600082821c905092915050565b600061100360001984600802610fe5565b1980831691505092915050565b600061101c8383610ff2565b9150826002028217905092915050565b61103582610a36565b67ffffffffffffffff81111561104e5761104d610b54565b5b6110588254610e07565b611063828285610f9f565b600060209050601f8311600181146110965760008415611084578287015190505b61108e8582611010565b8655506110f6565b601f1984166110a486610e80565b60005b828110156110cc578489015182556001820191506020850194506020810190506110a7565b868310156110e957848901516110e5601f891682610ff2565b8355505b6001600288020188555050505b50505050505056fea26469706673582212205e601a7c1380ce1599b450196955e2ab24b67e58ada6f1440aeb8c2fe2cf366764736f6c634300080f0033","opcodes":"PUSH1 0x80 PUSH1 0x40 MSTORE CALLVALUE DUP1 ISZERO PUSH3 0x11 JUMPI PUSH1 0x0 DUP1 REVERT JUMPDEST POP PUSH1 0x40 MLOAD PUSH3 0x12B6 CODESIZE SUB DUP1 PUSH3 0x12B6 DUP4 CODECOPY DUP2 DUP2 ADD PUSH1 0x40 MSTORE DUP2 ADD SWAP1 PUSH3 0x37 SWAP2 SWAP1 PUSH3 0x12B JUMP JUMPDEST DUP1 PUSH1 0x0 DUP1 PUSH2 0x100 EXP DUP2 SLOAD DUP2 PUSH20 0xFFFFFFFFFFFFFFFFFFFFFFFFFFFFFFFFFFFFFFFF MUL NOT AND SWAP1 DUP4 PUSH20 0xFFFFFFFFFFFFFFFFFFFFFFFFFFFFFFFFFFFFFFFF AND MUL OR SWAP1 SSTORE POP DUP2 PUSH1 0x1 DUP2 SWAP1 SSTORE POP POP POP PUSH3 0x172 JUMP JUMPDEST PUSH1 0x0 DUP1 REVERT JUMPDEST PUSH1 0x0 DUP2 SWAP1 POP SWAP2 SWAP1 POP JUMP JUMPDEST PUSH3 0xA0 DUP2 PUSH3 0x8B JUMP JUMPDEST DUP2 EQ PUSH3 0xAC JUMPI PUSH1 0x0 DUP1 REVERT JUMPDEST POP JUMP JUMPDEST PUSH1 0x0 DUP2 MLOAD SWAP1 POP PUSH3 0xC0 DUP2 PUSH3 0x95 JUMP JUMPDEST SWAP3 SWAP2 POP POP JUMP JUMPDEST PUSH1 0x0 PUSH20 0xFFFFFFFFFFFFFFFFFFFFFFFFFFFFFFFFFFFFFFFF DUP3 AND SWAP1 POP SWAP2 SWAP1 POP JUMP JUMPDEST PUSH1 0x0 PUSH3 0xF3 DUP3 PUSH3 0xC6 JUMP JUMPDEST SWAP1 POP SWAP2 SWAP1 POP JUMP JUMPDEST PUSH3 0x105 DUP2 PUSH3 0xE6 JUMP JUMPDEST DUP2 EQ PUSH3 0x111 JUMPI PUSH1 0x0 DUP1 REVERT JUMPDEST POP JUMP JUMPDEST PUSH1 0x0 DUP2 MLOAD SWAP1 POP PUSH3 0x125 DUP2 PUSH3 0xFA JUMP JUMPDEST SWAP3 SWAP2 POP POP JUMP JUMPDEST PUSH1 0x0 DUP1 PUSH1 0x40 DUP4 DUP6 SUB SLT ISZERO PUSH3 0x145 JUMPI PUSH3 0x144 PUSH3 0x86 JUMP JUMPDEST JUMPDEST PUSH1 0x0 PUSH3 0x155 DUP6 DUP3 DUP7 ADD PUSH3 0xAF JUMP JUMPDEST SWAP3 POP POP PUSH1 0x20 PUSH3 0x168 DUP6 DUP3 DUP7 ADD PUSH3 0x114 JUMP JUMPDEST SWAP2 POP POP SWAP3 POP SWAP3 SWAP1 POP JUMP JUMPDEST PUSH2 0x1134 DUP1 PUSH3 0x182 PUSH1 0x0 CODECOPY PUSH1 0x0 RETURN INVALID PUSH1 0x80 PUSH1 0x40 MSTORE PUSH1 0x4 CALLDATASIZE LT PUSH2 0xA7 JUMPI PUSH1 0x0 CALLDATALOAD PUSH1 0xE0 SHR DUP1 PUSH4 0x82FDE093 GT PUSH2 0x64 JUMPI DUP1 PUSH4 0x82FDE093 EQ PUSH2 0x1D8 JUMPI DUP1 PUSH4 0x8A9CFD55 EQ PUSH2 0x203 JUMPI DUP1 PUSH4 0x937E09B1 EQ PUSH2 0x22C JUMPI DUP1 PUSH4 0x9FB42B1F EQ PUSH2 0x257 JUMPI DUP1 PUSH4 0xD7BB99BA EQ PUSH2 0x282 JUMPI DUP1 PUSH4 0xD7D1BBDB EQ PUSH2 0x28C JUMPI PUSH2 0xA7 JUMP JUMPDEST DUP1 PUSH4 0x3441006 EQ PUSH2 0xAC JUMPI DUP1 PUSH4 0xA144391 EQ PUSH2 0xD5 JUMPI DUP1 PUSH4 0x3410452A EQ PUSH2 0x112 JUMPI DUP1 PUSH4 0x4051DDAC EQ PUSH2 0x13D JUMPI DUP1 PUSH4 0x481C6A75 EQ PUSH2 0x16C JUMPI DUP1 PUSH4 0x81D12C58 EQ PUSH2 0x197 JUMPI JUMPDEST PUSH1 0x0 DUP1 REVERT JUMPDEST CALLVALUE DUP1 ISZERO PUSH2 0xB8 JUMPI PUSH1 0x0 DUP1 REVERT JUMPDEST POP PUSH2 0xD3 PUSH1 0x4 DUP1 CALLDATASIZE SUB DUP2 ADD SWAP1 PUSH2 0xCE SWAP2 SWAP1 PUSH2 0x8A1 JUMP JUMPDEST PUSH2 0x2B5 JUMP JUMPDEST STOP JUMPDEST CALLVALUE DUP1 ISZERO PUSH2 0xE1 JUMPI PUSH1 0x0 DUP1 REVERT JUMPDEST POP PUSH2 0xFC PUSH1 0x4 DUP1 CALLDATASIZE SUB DUP2 ADD SWAP1 PUSH2 0xF7 SWAP2 SWAP1 PUSH2 0x92C JUMP JUMPDEST PUSH2 0x3F2 JUMP JUMPDEST PUSH1 0x40 MLOAD PUSH2 0x109 SWAP2 SWAP1 PUSH2 0x974 JUMP JUMPDEST PUSH1 0x40 MLOAD DUP1 SWAP2 SUB SWAP1 RETURN JUMPDEST CALLVALUE DUP1 ISZERO PUSH2 0x11E JUMPI PUSH1 0x0 DUP1 REVERT JUMPDEST POP PUSH2 0x127 PUSH2 0x412 JUMP JUMPDEST PUSH1 0x40 MLOAD PUSH2 0x134 SWAP2 SWAP1 PUSH2 0x99E JUMP JUMPDEST PUSH1 0x40 MLOAD DUP1 SWAP2 SUB SWAP1 RETURN JUMPDEST CALLVALUE DUP1 ISZERO PUSH2 0x149 JUMPI PUSH1 0x0 DUP1 REVERT JUMPDEST POP PUSH2 0x152 PUSH2 0x41C JUMP JUMPDEST PUSH1 0x40 MLOAD PUSH2 0x163 SWAP6 SWAP5 SWAP4 SWAP3 SWAP2 SWAP1 PUSH2 0x9C8 JUMP JUMPDEST PUSH1 0x40 MLOAD DUP1 SWAP2 SUB SWAP1 RETURN JUMPDEST CALLVALUE DUP1 ISZERO PUSH2 0x178 JUMPI PUSH1 0x0 DUP1 REVERT JUMPDEST POP PUSH2 0x181 PUSH2 0x460 JUMP JUMPDEST PUSH1 0x40 MLOAD PUSH2 0x18E SWAP2 SWAP1 PUSH2 0xA1B JUMP JUMPDEST PUSH1 0x40 MLOAD DUP1 SWAP2 SUB SWAP1 RETURN JUMPDEST CALLVALUE DUP1 ISZERO PUSH2 0x1A3 JUMPI PUSH1 0x0 DUP1 REVERT JUMPDEST POP PUSH2 0x1BE PUSH1 0x4 DUP1 CALLDATASIZE SUB DUP2 ADD SWAP1 PUSH2 0x1B9 SWAP2 SWAP1 PUSH2 0x8A1 JUMP JUMPDEST PUSH2 0x484 JUMP JUMPDEST PUSH1 0x40 MLOAD PUSH2 0x1CF SWAP6 SWAP5 SWAP4 SWAP3 SWAP2 SWAP1 PUSH2 0xAF0 JUMP JUMPDEST PUSH1 0x40 MLOAD DUP1 SWAP2 SUB SWAP1 RETURN JUMPDEST CALLVALUE DUP1 ISZERO PUSH2 0x1E4 JUMPI PUSH1 0x0 DUP1 REVERT JUMPDEST POP PUSH2 0x1ED PUSH2 0x56F JUMP JUMPDEST PUSH1 0x40 MLOAD PUSH2 0x1FA SWAP2 SWAP1 PUSH2 0x99E JUMP JUMPDEST PUSH1 0x40 MLOAD DUP1 SWAP2 SUB SWAP1 RETURN JUMPDEST CALLVALUE DUP1 ISZERO PUSH2 0x20F JUMPI PUSH1 0x0 DUP1 REVERT JUMPDEST POP PUSH2 0x22A PUSH1 0x4 DUP1 CALLDATASIZE SUB DUP2 ADD SWAP1 PUSH2 0x225 SWAP2 SWAP1 PUSH2 0xCAB JUMP JUMPDEST PUSH2 0x575 JUMP JUMPDEST STOP JUMPDEST CALLVALUE DUP1 ISZERO PUSH2 0x238 JUMPI PUSH1 0x0 DUP1 REVERT JUMPDEST POP PUSH2 0x241 PUSH2 0x68D JUMP JUMPDEST PUSH1 0x40 MLOAD PUSH2 0x24E SWAP2 SWAP1 PUSH2 0x99E JUMP JUMPDEST PUSH1 0x40 MLOAD DUP1 SWAP2 SUB SWAP1 RETURN JUMPDEST CALLVALUE DUP1 ISZERO PUSH2 0x263 JUMPI PUSH1 0x0 DUP1 REVERT JUMPDEST POP PUSH2 0x26C PUSH2 0x693 JUMP JUMPDEST PUSH1 0x40 MLOAD PUSH2 0x279 SWAP2 SWAP1 PUSH2 0x99E JUMP JUMPDEST PUSH1 0x40 MLOAD DUP1 SWAP2 SUB SWAP1 RETURN JUMPDEST PUSH2 0x28A PUSH2 0x699 JUMP JUMPDEST STOP JUMPDEST CALLVALUE DUP1 ISZERO PUSH2 0x298 JUMPI PUSH1 0x0 DUP1 REVERT JUMPDEST POP PUSH2 0x2B3 PUSH1 0x4 DUP1 CALLDATASIZE SUB DUP2 ADD SWAP1 PUSH2 0x2AE SWAP2 SWAP1 PUSH2 0x8A1 JUMP JUMPDEST PUSH2 0x719 JUMP JUMPDEST STOP JUMPDEST PUSH1 0x0 DUP1 SLOAD SWAP1 PUSH2 0x100 EXP SWAP1 DIV PUSH20 0xFFFFFFFFFFFFFFFFFFFFFFFFFFFFFFFFFFFFFFFF AND PUSH20 0xFFFFFFFFFFFFFFFFFFFFFFFFFFFFFFFFFFFFFFFF AND CALLER PUSH20 0xFFFFFFFFFFFFFFFFFFFFFFFFFFFFFFFFFFFFFFFF AND EQ PUSH2 0x311 JUMPI PUSH2 0x310 PUSH2 0xD1A JUMP JUMPDEST JUMPDEST PUSH1 0x0 PUSH1 0x5 PUSH1 0x0 DUP4 DUP2 MSTORE PUSH1 0x20 ADD SWAP1 DUP2 MSTORE PUSH1 0x20 ADD PUSH1 0x0 KECCAK256 SWAP1 POP DUP1 PUSH1 0x2 ADD PUSH1 0x14 SWAP1 SLOAD SWAP1 PUSH2 0x100 EXP SWAP1 DIV PUSH1 0xFF AND ISZERO PUSH2 0x344 JUMPI PUSH1 0x0 DUP1 REVERT JUMPDEST PUSH1 0x2 PUSH1 0x3 SLOAD PUSH2 0x353 SWAP2 SWAP1 PUSH2 0xDA7 JUMP JUMPDEST DUP2 PUSH1 0x4 ADD SLOAD GT PUSH2 0x362 JUMPI PUSH1 0x0 DUP1 REVERT JUMPDEST DUP1 PUSH1 0x2 ADD PUSH1 0x0 SWAP1 SLOAD SWAP1 PUSH2 0x100 EXP SWAP1 DIV PUSH20 0xFFFFFFFFFFFFFFFFFFFFFFFFFFFFFFFFFFFFFFFF AND PUSH20 0xFFFFFFFFFFFFFFFFFFFFFFFFFFFFFFFFFFFFFFFF AND PUSH2 0x8FC DUP3 PUSH1 0x1 ADD SLOAD SWAP1 DUP2 ISZERO MUL SWAP1 PUSH1 0x40 MLOAD PUSH1 0x0 PUSH1 0x40 MLOAD DUP1 DUP4 SUB DUP2 DUP6 DUP9 DUP9 CALL SWAP4 POP POP POP POP ISZERO DUP1 ISZERO PUSH2 0x3D0 JUMPI RETURNDATASIZE PUSH1 0x0 DUP1 RETURNDATACOPY RETURNDATASIZE PUSH1 0x0 REVERT JUMPDEST POP PUSH1 0x1 DUP2 PUSH1 0x2 ADD PUSH1 0x14 PUSH2 0x100 EXP DUP2 SLOAD DUP2 PUSH1 0xFF MUL NOT AND SWAP1 DUP4 ISZERO ISZERO MUL OR SWAP1 SSTORE POP POP POP JUMP JUMPDEST PUSH1 0x2 PUSH1 0x20 MSTORE DUP1 PUSH1 0x0 MSTORE PUSH1 0x40 PUSH1 0x0 KECCAK256 PUSH1 0x0 SWAP2 POP SLOAD SWAP1 PUSH2 0x100 EXP SWAP1 DIV PUSH1 0xFF AND DUP2 JUMP JUMPDEST PUSH1 0x0 PUSH1 0x4 SLOAD SWAP1 POP SWAP1 JUMP JUMPDEST PUSH1 0x0 DUP1 PUSH1 0x0 DUP1 PUSH1 0x0 PUSH1 0x1 SLOAD SELFBALANCE PUSH1 0x4 SLOAD PUSH1 0x3 SLOAD PUSH1 0x0 DUP1 SLOAD SWAP1 PUSH2 0x100 EXP SWAP1 DIV PUSH20 0xFFFFFFFFFFFFFFFFFFFFFFFFFFFFFFFFFFFFFFFF AND SWAP5 POP SWAP5 POP SWAP5 POP SWAP5 POP SWAP5 POP SWAP1 SWAP2 SWAP3 SWAP4 SWAP5 JUMP JUMPDEST PUSH1 0x0 DUP1 SLOAD SWAP1 PUSH2 0x100 EXP SWAP1 DIV PUSH20 0xFFFFFFFFFFFFFFFFFFFFFFFFFFFFFFFFFFFFFFFF AND DUP2 JUMP JUMPDEST PUSH1 0x5 PUSH1 0x20 MSTORE DUP1 PUSH1 0x0 MSTORE PUSH1 0x40 PUSH1 0x0 KECCAK256 PUSH1 0x0 SWAP2 POP SWAP1 POP DUP1 PUSH1 0x0 ADD DUP1 SLOAD PUSH2 0x4A7 SWAP1 PUSH2 0xE07 JUMP JUMPDEST DUP1 PUSH1 0x1F ADD PUSH1 0x20 DUP1 SWAP2 DIV MUL PUSH1 0x20 ADD PUSH1 0x40 MLOAD SWAP1 DUP2 ADD PUSH1 0x40 MSTORE DUP1 SWAP3 SWAP2 SWAP1 DUP2 DUP2 MSTORE PUSH1 0x20 ADD DUP3 DUP1 SLOAD PUSH2 0x4D3 SWAP1 PUSH2 0xE07 JUMP JUMPDEST DUP1 ISZERO PUSH2 0x520 JUMPI DUP1 PUSH1 0x1F LT PUSH2 0x4F5 JUMPI PUSH2 0x100 DUP1 DUP4 SLOAD DIV MUL DUP4 MSTORE SWAP2 PUSH1 0x20 ADD SWAP2 PUSH2 0x520 JUMP JUMPDEST DUP3 ADD SWAP2 SWAP1 PUSH1 0x0 MSTORE PUSH1 0x20 PUSH1 0x0 KECCAK256 SWAP1 JUMPDEST DUP2 SLOAD DUP2 MSTORE SWAP1 PUSH1 0x1 ADD SWAP1 PUSH1 0x20 ADD DUP1 DUP4 GT PUSH2 0x503 JUMPI DUP3 SWAP1 SUB PUSH1 0x1F AND DUP3 ADD SWAP2 JUMPDEST POP POP POP POP POP SWAP1 DUP1 PUSH1 0x1 ADD SLOAD SWAP1 DUP1 PUSH1 0x2 ADD PUSH1 0x0 SWAP1 SLOAD SWAP1 PUSH2 0x100 EXP SWAP1 DIV PUSH20 0xFFFFFFFFFFFFFFFFFFFFFFFFFFFFFFFFFFFFFFFF AND SWAP1 DUP1 PUSH1 0x2 ADD PUSH1 0x14 SWAP1 SLOAD SWAP1 PUSH2 0x100 EXP SWAP1 DIV PUSH1 0xFF AND SWAP1 DUP1 PUSH1 0x4 ADD SLOAD SWAP1 POP DUP6 JUMP JUMPDEST PUSH1 0x3 SLOAD DUP2 JUMP JUMPDEST PUSH1 0x0 DUP1 SLOAD SWAP1 PUSH2 0x100 EXP SWAP1 DIV PUSH20 0xFFFFFFFFFFFFFFFFFFFFFFFFFFFFFFFFFFFFFFFF AND PUSH20 0xFFFFFFFFFFFFFFFFFFFFFFFFFFFFFFFFFFFFFFFF AND CALLER PUSH20 0xFFFFFFFFFFFFFFFFFFFFFFFFFFFFFFFFFFFFFFFF AND EQ PUSH2 0x5D1 JUMPI PUSH2 0x5D0 PUSH2 0xD1A JUMP JUMPDEST JUMPDEST PUSH1 0x0 PUSH1 0x5 PUSH1 0x0 PUSH1 0x4 SLOAD DUP2 MSTORE PUSH1 0x20 ADD SWAP1 DUP2 MSTORE PUSH1 0x20 ADD PUSH1 0x0 KECCAK256 SWAP1 POP PUSH1 0x4 PUSH1 0x0 DUP2 SLOAD DUP1 SWAP3 SWAP2 SWAP1 PUSH2 0x5FD SWAP1 PUSH2 0xE38 JUMP JUMPDEST SWAP2 SWAP1 POP SSTORE POP DUP4 DUP2 PUSH1 0x0 ADD SWAP1 DUP2 PUSH2 0x613 SWAP2 SWAP1 PUSH2 0x102C JUMP JUMPDEST POP DUP3 DUP2 PUSH1 0x1 ADD DUP2 SWAP1 SSTORE POP DUP2 DUP2 PUSH1 0x2 ADD PUSH1 0x0 PUSH2 0x100 EXP DUP2 SLOAD DUP2 PUSH20 0xFFFFFFFFFFFFFFFFFFFFFFFFFFFFFFFFFFFFFFFF MUL NOT AND SWAP1 DUP4 PUSH20 0xFFFFFFFFFFFFFFFFFFFFFFFFFFFFFFFFFFFFFFFF AND MUL OR SWAP1 SSTORE POP PUSH1 0x0 DUP2 PUSH1 0x2 ADD PUSH1 0x14 PUSH2 0x100 EXP DUP2 SLOAD DUP2 PUSH1 0xFF MUL NOT AND SWAP1 DUP4 ISZERO ISZERO MUL OR SWAP1 SSTORE POP PUSH1 0x0 DUP2 PUSH1 0x4 ADD DUP2 SWAP1 SSTORE POP POP POP POP POP JUMP JUMPDEST PUSH1 0x1 SLOAD DUP2 JUMP JUMPDEST PUSH1 0x4 SLOAD DUP2 JUMP JUMPDEST PUSH1 0x1 SLOAD CALLVALUE GT PUSH2 0x6A7 JUMPI PUSH1 0x0 DUP1 REVERT JUMPDEST PUSH1 0x1 PUSH1 0x2 PUSH1 0x0 CALLER PUSH20 0xFFFFFFFFFFFFFFFFFFFFFFFFFFFFFFFFFFFFFFFF AND PUSH20 0xFFFFFFFFFFFFFFFFFFFFFFFFFFFFFFFFFFFFFFFF AND DUP2 MSTORE PUSH1 0x20 ADD SWAP1 DUP2 MSTORE PUSH1 0x20 ADD PUSH1 0x0 KECCAK256 PUSH1 0x0 PUSH2 0x100 EXP DUP2 SLOAD DUP2 PUSH1 0xFF MUL NOT AND SWAP1 DUP4 ISZERO ISZERO MUL OR SWAP1 SSTORE POP PUSH1 0x3 PUSH1 0x0 DUP2 SLOAD DUP1 SWAP3 SWAP2 SWAP1 PUSH2 0x712 SWAP1 PUSH2 0xE38 JUMP JUMPDEST SWAP2 SWAP1 POP SSTORE POP JUMP JUMPDEST PUSH1 0x0 PUSH1 0x5 PUSH1 0x0 DUP4 DUP2 MSTORE PUSH1 0x20 ADD SWAP1 DUP2 MSTORE PUSH1 0x20 ADD PUSH1 0x0 KECCAK256 SWAP1 POP PUSH1 0x2 PUSH1 0x0 CALLER PUSH20 0xFFFFFFFFFFFFFFFFFFFFFFFFFFFFFFFFFFFFFFFF AND PUSH20 0xFFFFFFFFFFFFFFFFFFFFFFFFFFFFFFFFFFFFFFFF AND DUP2 MSTORE PUSH1 0x20 ADD SWAP1 DUP2 MSTORE PUSH1 0x20 ADD PUSH1 0x0 KECCAK256 PUSH1 0x0 SWAP1 SLOAD SWAP1 PUSH2 0x100 EXP SWAP1 DIV PUSH1 0xFF AND PUSH2 0x786 JUMPI PUSH1 0x0 DUP1 REVERT JUMPDEST DUP1 PUSH1 0x3 ADD PUSH1 0x0 CALLER PUSH20 0xFFFFFFFFFFFFFFFFFFFFFFFFFFFFFFFFFFFFFFFF AND PUSH20 0xFFFFFFFFFFFFFFFFFFFFFFFFFFFFFFFFFFFFFFFF AND DUP2 MSTORE PUSH1 0x20 ADD SWAP1 DUP2 MSTORE PUSH1 0x20 ADD PUSH1 0x0 KECCAK256 PUSH1 0x0 SWAP1 SLOAD SWAP1 PUSH2 0x100 EXP SWAP1 DIV PUSH1 0xFF AND ISZERO PUSH2 0x7DF JUMPI PUSH1 0x0 DUP1 REVERT JUMPDEST PUSH1 0x1 DUP2 PUSH1 0x3 ADD PUSH1 0x0 CALLER PUSH20 0xFFFFFFFFFFFFFFFFFFFFFFFFFFFFFFFFFFFFFFFF AND PUSH20 0xFFFFFFFFFFFFFFFFFFFFFFFFFFFFFFFFFFFFFFFF AND DUP2 MSTORE PUSH1 0x20 ADD SWAP1 DUP2 MSTORE PUSH1 0x20 ADD PUSH1 0x0 KECCAK256 PUSH1 0x0 PUSH2 0x100 EXP DUP2 SLOAD DUP2 PUSH1 0xFF MUL NOT AND SWAP1 DUP4 ISZERO ISZERO MUL OR SWAP1 SSTORE POP DUP1 PUSH1 0x4 ADD PUSH1 0x0 DUP2 SLOAD DUP1 SWAP3 SWAP2 SWAP1 PUSH2 0x84E SWAP1 PUSH2 0xE38 JUMP JUMPDEST SWAP2 SWAP1 POP SSTORE POP POP POP JUMP JUMPDEST PUSH1 0x0 PUSH1 0x40 MLOAD SWAP1 POP SWAP1 JUMP JUMPDEST PUSH1 0x0 DUP1 REVERT JUMPDEST PUSH1 0x0 DUP1 REVERT JUMPDEST PUSH1 0x0 DUP2 SWAP1 POP SWAP2 SWAP1 POP JUMP JUMPDEST PUSH2 0x87E DUP2 PUSH2 0x86B JUMP JUMPDEST DUP2 EQ PUSH2 0x889 JUMPI PUSH1 0x0 DUP1 REVERT JUMPDEST POP JUMP JUMPDEST PUSH1 0x0 DUP2 CALLDATALOAD SWAP1 POP PUSH2 0x89B DUP2 PUSH2 0x875 JUMP JUMPDEST SWAP3 SWAP2 POP POP JUMP JUMPDEST PUSH1 0x0 PUSH1 0x20 DUP3 DUP5 SUB SLT ISZERO PUSH2 0x8B7 JUMPI PUSH2 0x8B6 PUSH2 0x861 JUMP JUMPDEST JUMPDEST PUSH1 0x0 PUSH2 0x8C5 DUP5 DUP3 DUP6 ADD PUSH2 0x88C JUMP JUMPDEST SWAP2 POP POP SWAP3 SWAP2 POP POP JUMP JUMPDEST PUSH1 0x0 PUSH20 0xFFFFFFFFFFFFFFFFFFFFFFFFFFFFFFFFFFFFFFFF DUP3 AND SWAP1 POP SWAP2 SWAP1 POP JUMP JUMPDEST PUSH1 0x0 PUSH2 0x8F9 DUP3 PUSH2 0x8CE JUMP JUMPDEST SWAP1 POP SWAP2 SWAP1 POP JUMP JUMPDEST PUSH2 0x909 DUP2 PUSH2 0x8EE JUMP JUMPDEST DUP2 EQ PUSH2 0x914 JUMPI PUSH1 0x0 DUP1 REVERT JUMPDEST POP JUMP JUMPDEST PUSH1 0x0 DUP2 CALLDATALOAD SWAP1 POP PUSH2 0x926 DUP2 PUSH2 0x900 JUMP JUMPDEST SWAP3 SWAP2 POP POP JUMP JUMPDEST PUSH1 0x0 PUSH1 0x20 DUP3 DUP5 SUB SLT ISZERO PUSH2 0x942 JUMPI PUSH2 0x941 PUSH2 0x861 JUMP JUMPDEST JUMPDEST PUSH1 0x0 PUSH2 0x950 DUP5 DUP3 DUP6 ADD PUSH2 0x917 JUMP JUMPDEST SWAP2 POP POP SWAP3 SWAP2 POP POP JUMP JUMPDEST PUSH1 0x0 DUP2 ISZERO ISZERO SWAP1 POP SWAP2 SWAP1 POP JUMP JUMPDEST PUSH2 0x96E DUP2 PUSH2 0x959 JUMP JUMPDEST DUP3 MSTORE POP POP JUMP JUMPDEST PUSH1 0x0 PUSH1 0x20 DUP3 ADD SWAP1 POP PUSH2 0x989 PUSH1 0x0 DUP4 ADD DUP5 PUSH2 0x965 JUMP JUMPDEST SWAP3 SWAP2 POP POP JUMP JUMPDEST PUSH2 0x998 DUP2 PUSH2 0x86B JUMP JUMPDEST DUP3 MSTORE POP POP JUMP JUMPDEST PUSH1 0x0 PUSH1 0x20 DUP3 ADD SWAP1 POP PUSH2 0x9B3 PUSH1 0x0 DUP4 ADD DUP5 PUSH2 0x98F JUMP JUMPDEST SWAP3 SWAP2 POP POP JUMP JUMPDEST PUSH2 0x9C2 DUP2 PUSH2 0x8EE JUMP JUMPDEST DUP3 MSTORE POP POP JUMP JUMPDEST PUSH1 0x0 PUSH1 0xA0 DUP3 ADD SWAP1 POP PUSH2 0x9DD PUSH1 0x0 DUP4 ADD DUP9 PUSH2 0x98F JUMP JUMPDEST PUSH2 0x9EA PUSH1 0x20 DUP4 ADD DUP8 PUSH2 0x98F JUMP JUMPDEST PUSH2 0x9F7 PUSH1 0x40 DUP4 ADD DUP7 PUSH2 0x98F JUMP JUMPDEST PUSH2 0xA04 PUSH1 0x60 DUP4 ADD DUP6 PUSH2 0x98F JUMP JUMPDEST PUSH2 0xA11 PUSH1 0x80 DUP4 ADD DUP5 PUSH2 0x9B9 JUMP JUMPDEST SWAP7 SWAP6 POP POP POP POP POP POP JUMP JUMPDEST PUSH1 0x0 PUSH1 0x20 DUP3 ADD SWAP1 POP PUSH2 0xA30 PUSH1 0x0 DUP4 ADD DUP5 PUSH2 0x9B9 JUMP JUMPDEST SWAP3 SWAP2 POP POP JUMP JUMPDEST PUSH1 0x0 DUP2 MLOAD SWAP1 POP SWAP2 SWAP1 POP JUMP JUMPDEST PUSH1 0x0 DUP3 DUP3 MSTORE PUSH1 0x20 DUP3 ADD SWAP1 POP SWAP3 SWAP2 POP POP JUMP JUMPDEST PUSH1 0x0 JUMPDEST DUP4 DUP2 LT ISZERO PUSH2 0xA70 JUMPI DUP1 DUP3 ADD MLOAD DUP2 DUP5 ADD MSTORE PUSH1 0x20 DUP2 ADD SWAP1 POP PUSH2 0xA55 JUMP JUMPDEST DUP4 DUP2 GT ISZERO PUSH2 0xA7F JUMPI PUSH1 0x0 DUP5 DUP5 ADD MSTORE JUMPDEST POP POP POP POP JUMP JUMPDEST PUSH1 0x0 PUSH1 0x1F NOT PUSH1 0x1F DUP4 ADD AND SWAP1 POP SWAP2 SWAP1 POP JUMP JUMPDEST PUSH1 0x0 PUSH2 0xAA1 DUP3 PUSH2 0xA36 JUMP JUMPDEST PUSH2 0xAAB DUP2 DUP6 PUSH2 0xA41 JUMP JUMPDEST SWAP4 POP PUSH2 0xABB DUP2 DUP6 PUSH1 0x20 DUP7 ADD PUSH2 0xA52 JUMP JUMPDEST PUSH2 0xAC4 DUP2 PUSH2 0xA85 JUMP JUMPDEST DUP5 ADD SWAP2 POP POP SWAP3 SWAP2 POP POP JUMP JUMPDEST PUSH1 0x0 PUSH2 0xADA DUP3 PUSH2 0x8CE JUMP JUMPDEST SWAP1 POP SWAP2 SWAP1 POP JUMP JUMPDEST PUSH2 0xAEA DUP2 PUSH2 0xACF JUMP JUMPDEST DUP3 MSTORE POP POP JUMP JUMPDEST PUSH1 0x0 PUSH1 0xA0 DUP3 ADD SWAP1 POP DUP2 DUP2 SUB PUSH1 0x0 DUP4 ADD MSTORE PUSH2 0xB0A DUP2 DUP9 PUSH2 0xA96 JUMP JUMPDEST SWAP1 POP PUSH2 0xB19 PUSH1 0x20 DUP4 ADD DUP8 PUSH2 0x98F JUMP JUMPDEST PUSH2 0xB26 PUSH1 0x40 DUP4 ADD DUP7 PUSH2 0xAE1 JUMP JUMPDEST PUSH2 0xB33 PUSH1 0x60 DUP4 ADD DUP6 PUSH2 0x965 JUMP JUMPDEST PUSH2 0xB40 PUSH1 0x80 DUP4 ADD DUP5 PUSH2 0x98F JUMP JUMPDEST SWAP7 SWAP6 POP POP POP POP POP POP JUMP JUMPDEST PUSH1 0x0 DUP1 REVERT JUMPDEST PUSH1 0x0 DUP1 REVERT JUMPDEST PUSH32 0x4E487B7100000000000000000000000000000000000000000000000000000000 PUSH1 0x0 MSTORE PUSH1 0x41 PUSH1 0x4 MSTORE PUSH1 0x24 PUSH1 0x0 REVERT JUMPDEST PUSH2 0xB8C DUP3 PUSH2 0xA85 JUMP JUMPDEST DUP2 ADD DUP2 DUP2 LT PUSH8 0xFFFFFFFFFFFFFFFF DUP3 GT OR ISZERO PUSH2 0xBAB JUMPI PUSH2 0xBAA PUSH2 0xB54 JUMP JUMPDEST JUMPDEST DUP1 PUSH1 0x40 MSTORE POP POP POP JUMP JUMPDEST PUSH1 0x0 PUSH2 0xBBE PUSH2 0x857 JUMP JUMPDEST SWAP1 POP PUSH2 0xBCA DUP3 DUP3 PUSH2 0xB83 JUMP JUMPDEST SWAP2 SWAP1 POP JUMP JUMPDEST PUSH1 0x0 PUSH8 0xFFFFFFFFFFFFFFFF DUP3 GT ISZERO PUSH2 0xBEA JUMPI PUSH2 0xBE9 PUSH2 0xB54 JUMP JUMPDEST JUMPDEST PUSH2 0xBF3 DUP3 PUSH2 0xA85 JUMP JUMPDEST SWAP1 POP PUSH1 0x20 DUP2 ADD SWAP1 POP SWAP2 SWAP1 POP JUMP JUMPDEST DUP3 DUP2 DUP4 CALLDATACOPY PUSH1 0x0 DUP4 DUP4 ADD MSTORE POP POP POP JUMP JUMPDEST PUSH1 0x0 PUSH2 0xC22 PUSH2 0xC1D DUP5 PUSH2 0xBCF JUMP JUMPDEST PUSH2 0xBB4 JUMP JUMPDEST SWAP1 POP DUP3 DUP2 MSTORE PUSH1 0x20 DUP2 ADD DUP5 DUP5 DUP5 ADD GT ISZERO PUSH2 0xC3E JUMPI PUSH2 0xC3D PUSH2 0xB4F JUMP JUMPDEST JUMPDEST PUSH2 0xC49 DUP5 DUP3 DUP6 PUSH2 0xC00 JUMP JUMPDEST POP SWAP4 SWAP3 POP POP POP JUMP JUMPDEST PUSH1 0x0 DUP3 PUSH1 0x1F DUP4 ADD SLT PUSH2 0xC66 JUMPI PUSH2 0xC65 PUSH2 0xB4A JUMP JUMPDEST JUMPDEST DUP2 CALLDATALOAD PUSH2 0xC76 DUP5 DUP3 PUSH1 0x20 DUP7 ADD PUSH2 0xC0F JUMP JUMPDEST SWAP2 POP POP SWAP3 SWAP2 POP POP JUMP JUMPDEST PUSH2 0xC88 DUP2 PUSH2 0xACF JUMP JUMPDEST DUP2 EQ PUSH2 0xC93 JUMPI PUSH1 0x0 DUP1 REVERT JUMPDEST POP JUMP JUMPDEST PUSH1 0x0 DUP2 CALLDATALOAD SWAP1 POP PUSH2 0xCA5 DUP2 PUSH2 0xC7F JUMP JUMPDEST SWAP3 SWAP2 POP POP JUMP JUMPDEST PUSH1 0x0 DUP1 PUSH1 0x0 PUSH1 0x60 DUP5 DUP7 SUB SLT ISZERO PUSH2 0xCC4 JUMPI PUSH2 0xCC3 PUSH2 0x861 JUMP JUMPDEST JUMPDEST PUSH1 0x0 DUP5 ADD CALLDATALOAD PUSH8 0xFFFFFFFFFFFFFFFF DUP2 GT ISZERO PUSH2 0xCE2 JUMPI PUSH2 0xCE1 PUSH2 0x866 JUMP JUMPDEST JUMPDEST PUSH2 0xCEE DUP7 DUP3 DUP8 ADD PUSH2 0xC51 JUMP JUMPDEST SWAP4 POP POP PUSH1 0x20 PUSH2 0xCFF DUP7 DUP3 DUP8 ADD PUSH2 0x88C JUMP JUMPDEST SWAP3 POP POP PUSH1 0x40 PUSH2 0xD10 DUP7 DUP3 DUP8 ADD PUSH2 0xC96 JUMP JUMPDEST SWAP2 POP POP SWAP3 POP SWAP3 POP SWAP3 JUMP JUMPDEST PUSH32 0x4E487B7100000000000000000000000000000000000000000000000000000000 PUSH1 0x0 MSTORE PUSH1 0x1 PUSH1 0x4 MSTORE PUSH1 0x24 PUSH1 0x0 REVERT JUMPDEST PUSH32 0x4E487B7100000000000000000000000000000000000000000000000000000000 PUSH1 0x0 MSTORE PUSH1 0x12 PUSH1 0x4 MSTORE PUSH1 0x24 PUSH1 0x0 REVERT JUMPDEST PUSH32 0x4E487B7100000000000000000000000000000000000000000000000000000000 PUSH1 0x0 MSTORE PUSH1 0x11 PUSH1 0x4 MSTORE PUSH1 0x24 PUSH1 0x0 REVERT JUMPDEST PUSH1 0x0 PUSH2 0xDB2 DUP3 PUSH2 0x86B JUMP JUMPDEST SWAP2 POP PUSH2 0xDBD DUP4 PUSH2 0x86B JUMP JUMPDEST SWAP3 POP DUP3 PUSH2 0xDCD JUMPI PUSH2 0xDCC PUSH2 0xD49 JUMP JUMPDEST JUMPDEST DUP3 DUP3 DIV SWAP1 POP SWAP3 SWAP2 POP POP JUMP JUMPDEST PUSH32 0x4E487B7100000000000000000000000000000000000000000000000000000000 PUSH1 0x0 MSTORE PUSH1 0x22 PUSH1 0x4 MSTORE PUSH1 0x24 PUSH1 0x0 REVERT JUMPDEST PUSH1 0x0 PUSH1 0x2 DUP3 DIV SWAP1 POP PUSH1 0x1 DUP3 AND DUP1 PUSH2 0xE1F JUMPI PUSH1 0x7F DUP3 AND SWAP2 POP JUMPDEST PUSH1 0x20 DUP3 LT DUP2 SUB PUSH2 0xE32 JUMPI PUSH2 0xE31 PUSH2 0xDD8 JUMP JUMPDEST JUMPDEST POP SWAP2 SWAP1 POP JUMP JUMPDEST PUSH1 0x0 PUSH2 0xE43 DUP3 PUSH2 0x86B JUMP JUMPDEST SWAP2 POP PUSH32 0xFFFFFFFFFFFFFFFFFFFFFFFFFFFFFFFFFFFFFFFFFFFFFFFFFFFFFFFFFFFFFFFF DUP3 SUB PUSH2 0xE75 JUMPI PUSH2 0xE74 PUSH2 0xD78 JUMP JUMPDEST JUMPDEST PUSH1 0x1 DUP3 ADD SWAP1 POP SWAP2 SWAP1 POP JUMP JUMPDEST PUSH1 0x0 DUP2 SWAP1 POP DUP2 PUSH1 0x0 MSTORE PUSH1 0x20 PUSH1 0x0 KECCAK256 SWAP1 POP SWAP2 SWAP1 POP JUMP JUMPDEST PUSH1 0x0 PUSH1 0x20 PUSH1 0x1F DUP4 ADD DIV SWAP1 POP SWAP2 SWAP1 POP JUMP JUMPDEST PUSH1 0x0 DUP3 DUP3 SHL SWAP1 POP SWAP3 SWAP2 POP POP JUMP JUMPDEST PUSH1 0x0 PUSH1 0x8 DUP4 MUL PUSH2 0xEE2 PUSH32 0xFFFFFFFFFFFFFFFFFFFFFFFFFFFFFFFFFFFFFFFFFFFFFFFFFFFFFFFFFFFFFFFF DUP3 PUSH2 0xEA5 JUMP JUMPDEST PUSH2 0xEEC DUP7 DUP4 PUSH2 0xEA5 JUMP JUMPDEST SWAP6 POP DUP1 NOT DUP5 AND SWAP4 POP DUP1 DUP7 AND DUP5 OR SWAP3 POP POP POP SWAP4 SWAP3 POP POP POP JUMP JUMPDEST PUSH1 0x0 DUP2 SWAP1 POP SWAP2 SWAP1 POP JUMP JUMPDEST PUSH1 0x0 PUSH2 0xF29 PUSH2 0xF24 PUSH2 0xF1F DUP5 PUSH2 0x86B JUMP JUMPDEST PUSH2 0xF04 JUMP JUMPDEST PUSH2 0x86B JUMP JUMPDEST SWAP1 POP SWAP2 SWAP1 POP JUMP JUMPDEST PUSH1 0x0 DUP2 SWAP1 POP SWAP2 SWAP1 POP JUMP JUMPDEST PUSH2 0xF43 DUP4 PUSH2 0xF0E JUMP JUMPDEST PUSH2 0xF57 PUSH2 0xF4F DUP3 PUSH2 0xF30 JUMP JUMPDEST DUP5 DUP5 SLOAD PUSH2 0xEB2 JUMP JUMPDEST DUP3 SSTORE POP POP POP POP JUMP JUMPDEST PUSH1 0x0 SWAP1 JUMP JUMPDEST PUSH2 0xF6C PUSH2 0xF5F JUMP JUMPDEST PUSH2 0xF77 DUP2 DUP5 DUP5 PUSH2 0xF3A JUMP JUMPDEST POP POP POP JUMP JUMPDEST JUMPDEST DUP2 DUP2 LT ISZERO PUSH2 0xF9B JUMPI PUSH2 0xF90 PUSH1 0x0 DUP3 PUSH2 0xF64 JUMP JUMPDEST PUSH1 0x1 DUP2 ADD SWAP1 POP PUSH2 0xF7D JUMP JUMPDEST POP POP JUMP JUMPDEST PUSH1 0x1F DUP3 GT ISZERO PUSH2 0xFE0 JUMPI PUSH2 0xFB1 DUP2 PUSH2 0xE80 JUMP JUMPDEST PUSH2 0xFBA DUP5 PUSH2 0xE95 JUMP JUMPDEST DUP2 ADD PUSH1 0x20 DUP6 LT ISZERO PUSH2 0xFC9 JUMPI DUP2 SWAP1 POP JUMPDEST PUSH2 0xFDD PUSH2 0xFD5 DUP6 PUSH2 0xE95 JUMP JUMPDEST DUP4 ADD DUP3 PUSH2 0xF7C JUMP JUMPDEST POP POP JUMPDEST POP POP POP JUMP JUMPDEST PUSH1 0x0 DUP3 DUP3 SHR SWAP1 POP SWAP3 SWAP2 POP POP JUMP JUMPDEST PUSH1 0x0 PUSH2 0x1003 PUSH1 0x0 NOT DUP5 PUSH1 0x8 MUL PUSH2 0xFE5 JUMP JUMPDEST NOT DUP1 DUP4 AND SWAP2 POP POP SWAP3 SWAP2 POP POP JUMP JUMPDEST PUSH1 0x0 PUSH2 0x101C DUP4 DUP4 PUSH2 0xFF2 JUMP JUMPDEST SWAP2 POP DUP3 PUSH1 0x2 MUL DUP3 OR SWAP1 POP SWAP3 SWAP2 POP POP JUMP JUMPDEST PUSH2 0x1035 DUP3 PUSH2 0xA36 JUMP JUMPDEST PUSH8 0xFFFFFFFFFFFFFFFF DUP2 GT ISZERO PUSH2 0x104E JUMPI PUSH2 0x104D PUSH2 0xB54 JUMP JUMPDEST JUMPDEST PUSH2 0x1058 DUP3 SLOAD PUSH2 0xE07 JUMP JUMPDEST PUSH2 0x1063 DUP3 DUP3 DUP6 PUSH2 0xF9F JUMP JUMPDEST PUSH1 0x0 PUSH1 0x20 SWAP1 POP PUSH1 0x1F DUP4 GT PUSH1 0x1 DUP2 EQ PUSH2 0x1096 JUMPI PUSH1 0x0 DUP5 ISZERO PUSH2 0x1084 JUMPI DUP3 DUP8 ADD MLOAD SWAP1 POP JUMPDEST PUSH2 0x108E DUP6 DUP3 PUSH2 0x1010 JUMP JUMPDEST DUP7 SSTORE POP PUSH2 0x10F6 JUMP JUMPDEST PUSH1 0x1F NOT DUP5 AND PUSH2 0x10A4 DUP7 PUSH2 0xE80 JUMP JUMPDEST PUSH1 0x0 JUMPDEST DUP3 DUP2 LT ISZERO PUSH2 0x10CC JUMPI DUP5 DUP10 ADD MLOAD DUP3 SSTORE PUSH1 0x1 DUP3 ADD SWAP2 POP PUSH1 0x20 DUP6 ADD SWAP5 POP PUSH1 0x20 DUP2 ADD SWAP1 POP PUSH2 0x10A7 JUMP JUMPDEST DUP7 DUP4 LT ISZERO PUSH2 0x10E9 JUMPI DUP5 DUP10 ADD MLOAD PUSH2 0x10E5 PUSH1 0x1F DUP10 AND DUP3 PUSH2 0xFF2 JUMP JUMPDEST DUP4 SSTORE POP JUMPDEST PUSH1 0x1 PUSH1 0x2 DUP9 MUL ADD DUP9 SSTORE POP POP POP JUMPDEST POP POP POP POP POP POP JUMP INVALID LOG2 PUSH5 0x6970667358 0x22 SLT KECCAK256 0x5E PUSH1 0x1A PUSH29 0x1380CE1599B450196955E2AB24B67E58ADA6F1440AEB8C2FE2CF366764 PUSH20 0x6F6C634300080F00330000000000000000000000 "},"gasEstimates":{"creation":{"codeDepositCost":"880800","executionCost":"infinite","totalCost":"infinite"},"external":{"approveRequest(uint256)":"infinite","approvers(address)":"2868","approversCount()":"2429","contribute()":"51043","createRequest(string,uint256,address)":"infinite","finalizeRequest(uint256)":"infinite","getRequestsCount()":"2482","getSummary()":"infinite","manager()":"2600","minimumContribution()":"2473","numRequests()":"2495","requests(uint256)":"infinite"}},"methodIdentifiers":{"approveRequest(uint256)":"d7d1bbdb","approvers(address)":"0a144391","approversCount()":"82fde093","contribute()":"d7bb99ba","createRequest(string,uint256,address)":"8a9cfd55","finalizeRequest(uint256)":"03441006","getRequestsCount()":"3410452a","getSummary()":"4051ddac","manager()":"481c6a75","minimumContribution()":"937e09b1","numRequests()":"9fb42b1f","requests(uint256)":"81d12c58"}},"storageLayout":{"storage":[{"astId":56,"contract":"Campaign.sol:Campaign","label":"manager","offset":0,"slot":"0","type":"t_address"},{"astId":58,"contract":"Campaign.sol:Campaign","label":"minimumContribution","offset":0,"slot":"1","type":"t_uint256"},{"astId":62,"contract":"Campaign.sol:Campaign","label":"approvers","offset":0,"slot":"2","type":"t_mapping(t_address,t_bool)"},{"astId":64,"contract":"Campaign.sol:Campaign","label":"approversCount","offset":0,"slot":"3","type":"t_uint256"},{"astId":66,"contract":"Campaign.sol:Campaign","label":"numRequests","offset":0,"slot":"4","type":"t_uint256"},{"astId":71,"contract":"Campaign.sol:Campaign","label":"requests","offset":0,"slot":"5","type":"t_mapping(t_uint256,t_struct(Request)54_storage)"}],"types":{"t_address":{"encoding":"inplace","label":"address","numberOfBytes":"20"},"t_address_payable":{"encoding":"inplace","label":"address payable","numberOfBytes":"20"},"t_bool":{"encoding":"inplace","label":"bool","numberOfBytes":"1"},"t_mapping(t_address,t_bool)":{"encoding":"mapping","key":"t_address","label":"mapping(address => bool)","numberOfBytes":"32","value":"t_bool"},"t_mapping(t_uint256,t_struct(Request)54_storage)":{"encoding":"mapping","key":"t_uint256","label":"mapping(uint256 => struct Campaign.Request)","numberOfBytes":"32","value":"t_struct(Request)54_storage"},"t_string_storage":{"encoding":"bytes","label":"string","numberOfBytes":"32"},"t_struct(Request)54_storage":{"encoding":"inplace","label":"struct Campaign.Request","members":[{"astId":41,"contract":"Campaign.sol:Campaign","label":"description","offset":0,"slot":"0","type":"t_string_storage"},{"astId":43,"contract":"Campaign.sol:Campaign","label":"value","offset":0,"slot":"1","type":"t_uint256"},{"astId":45,"contract":"Campaign.sol:Campaign","label":"recipient","offset":0,"slot":"2","type":"t_address_payable"},{"astId":47,"contract":"Campaign.sol:Campaign","label":"complete","offset":20,"slot":"2","type":"t_bool"},{"astId":51,"contract":"Campaign.sol:Campaign","label":"approvals","offset":0,"slot":"3","type":"t_mapping(t_address,t_bool)"},{"astId":53,"contract":"Campaign.sol:Campaign","label":"approvalCount","offset":0,"slot":"4","type":"t_uint256"}],"numberOfBytes":"160"},"t_uint256":{"encoding":"inplace","label":"uint256","numberOfBytes":"32"}}},"userdoc":{"kind":"user","methods":{},"version":1}}